{
  "_format": "hh-sol-artifact-1",
  "contractName": "PEACE2UKRAINE",
  "sourceName": "contracts/Peace2Ukraine.sol",
  "abi": [
    {
      "inputs": [],
      "stateMutability": "nonpayable",
      "type": "constructor"
    },
    {
      "anonymous": false,
      "inputs": [
        {
          "indexed": true,
          "internalType": "address",
          "name": "owner",
          "type": "address"
        },
        {
          "indexed": true,
          "internalType": "address",
          "name": "approved",
          "type": "address"
        },
        {
          "indexed": true,
          "internalType": "uint256",
          "name": "tokenId",
          "type": "uint256"
        }
      ],
      "name": "Approval",
      "type": "event"
    },
    {
      "anonymous": false,
      "inputs": [
        {
          "indexed": true,
          "internalType": "address",
          "name": "owner",
          "type": "address"
        },
        {
          "indexed": true,
          "internalType": "address",
          "name": "operator",
          "type": "address"
        },
        {
          "indexed": false,
          "internalType": "bool",
          "name": "approved",
          "type": "bool"
        }
      ],
      "name": "ApprovalForAll",
      "type": "event"
    },
    {
      "anonymous": false,
      "inputs": [
        {
          "indexed": true,
          "internalType": "address",
          "name": "previousOwner",
          "type": "address"
        },
        {
          "indexed": true,
          "internalType": "address",
          "name": "newOwner",
          "type": "address"
        }
      ],
      "name": "OwnershipTransferred",
      "type": "event"
    },
    {
      "anonymous": false,
      "inputs": [
        {
          "indexed": true,
          "internalType": "address",
          "name": "from",
          "type": "address"
        },
        {
          "indexed": true,
          "internalType": "address",
          "name": "to",
          "type": "address"
        },
        {
          "indexed": true,
          "internalType": "uint256",
          "name": "tokenId",
          "type": "uint256"
        }
      ],
      "name": "Transfer",
      "type": "event"
    },
    {
      "inputs": [],
      "name": "MAX_PER_MINT",
      "outputs": [
        {
          "internalType": "uint256",
          "name": "",
          "type": "uint256"
        }
      ],
      "stateMutability": "view",
      "type": "function"
    },
    {
      "inputs": [],
      "name": "MAX_SUPPLY",
      "outputs": [
        {
          "internalType": "uint256",
          "name": "",
          "type": "uint256"
        }
      ],
      "stateMutability": "view",
      "type": "function"
    },
    {
      "inputs": [
        {
          "internalType": "uint256",
          "name": "",
          "type": "uint256"
        }
      ],
      "name": "_collections",
      "outputs": [
        {
          "internalType": "string",
          "name": "",
          "type": "string"
        }
      ],
      "stateMutability": "view",
      "type": "function"
    },
    {
      "inputs": [],
      "name": "_lastTokenID",
      "outputs": [
        {
          "internalType": "uint256",
          "name": "",
          "type": "uint256"
        }
      ],
      "stateMutability": "view",
      "type": "function"
    },
    {
      "inputs": [
        {
          "internalType": "string",
          "name": "_collectionURI",
          "type": "string"
        }
      ],
      "name": "addCollection",
      "outputs": [],
      "stateMutability": "nonpayable",
      "type": "function"
    },
    {
      "inputs": [
        {
          "internalType": "address",
          "name": "to",
          "type": "address"
        },
        {
          "internalType": "uint256",
          "name": "tokenId",
          "type": "uint256"
        }
      ],
      "name": "approve",
      "outputs": [],
      "stateMutability": "nonpayable",
      "type": "function"
    },
    {
      "inputs": [
        {
          "internalType": "address",
          "name": "owner",
          "type": "address"
        }
      ],
      "name": "balanceOf",
      "outputs": [
        {
          "internalType": "uint256",
          "name": "",
          "type": "uint256"
        }
      ],
      "stateMutability": "view",
      "type": "function"
    },
    {
      "inputs": [
        {
          "internalType": "uint256",
          "name": "collectionID",
          "type": "uint256"
        }
      ],
      "name": "burnCollection",
      "outputs": [],
      "stateMutability": "payable",
      "type": "function"
    },
    {
      "inputs": [
        {
          "internalType": "uint256",
          "name": "_tokenID",
          "type": "uint256"
        }
      ],
      "name": "burnNFT",
      "outputs": [],
      "stateMutability": "nonpayable",
      "type": "function"
    },
    {
      "inputs": [],
      "name": "donateRate",
      "outputs": [
        {
          "internalType": "uint256",
          "name": "",
          "type": "uint256"
        }
      ],
      "stateMutability": "view",
      "type": "function"
    },
    {
      "inputs": [],
      "name": "getAllCollections",
      "outputs": [
        {
          "internalType": "string[]",
          "name": "",
          "type": "string[]"
        }
      ],
      "stateMutability": "view",
      "type": "function"
    },
    {
      "inputs": [
        {
          "internalType": "uint256",
          "name": "tokenId",
          "type": "uint256"
        }
      ],
      "name": "getApproved",
      "outputs": [
        {
          "internalType": "address",
          "name": "",
          "type": "address"
        }
      ],
      "stateMutability": "view",
      "type": "function"
    },
    {
      "inputs": [
        {
          "internalType": "uint256",
          "name": "index",
          "type": "uint256"
        }
      ],
      "name": "getCollectionByIndex",
      "outputs": [
        {
          "internalType": "string",
          "name": "",
          "type": "string"
        }
      ],
      "stateMutability": "view",
      "type": "function"
    },
    {
      "inputs": [
        {
          "internalType": "address",
          "name": "owner",
          "type": "address"
        },
        {
          "internalType": "address",
          "name": "operator",
          "type": "address"
        }
      ],
      "name": "isApprovedForAll",
      "outputs": [
        {
          "internalType": "bool",
          "name": "",
          "type": "bool"
        }
      ],
      "stateMutability": "view",
      "type": "function"
    },
    {
      "inputs": [
        {
          "internalType": "uint256",
          "name": "_count",
          "type": "uint256"
        },
        {
          "internalType": "string[]",
          "name": "tokenURIs",
          "type": "string[]"
        }
      ],
      "name": "mintNFTs",
      "outputs": [],
      "stateMutability": "nonpayable",
      "type": "function"
    },
    {
      "inputs": [
        {
          "internalType": "string",
          "name": "_tokenURI",
          "type": "string"
        }
      ],
      "name": "mintSingleNFT",
      "outputs": [],
      "stateMutability": "nonpayable",
      "type": "function"
    },
    {
      "inputs": [],
      "name": "name",
      "outputs": [
        {
          "internalType": "string",
          "name": "",
          "type": "string"
        }
      ],
      "stateMutability": "view",
      "type": "function"
    },
    {
      "inputs": [],
      "name": "owner",
      "outputs": [
        {
          "internalType": "address",
          "name": "",
          "type": "address"
        }
      ],
      "stateMutability": "view",
      "type": "function"
    },
    {
      "inputs": [
        {
          "internalType": "uint256",
          "name": "tokenId",
          "type": "uint256"
        }
      ],
      "name": "ownerOf",
      "outputs": [
        {
          "internalType": "address",
          "name": "",
          "type": "address"
        }
      ],
      "stateMutability": "view",
      "type": "function"
    },
    {
      "inputs": [],
      "name": "price",
      "outputs": [
        {
          "internalType": "uint256",
          "name": "",
          "type": "uint256"
        }
      ],
      "stateMutability": "view",
      "type": "function"
    },
    {
      "inputs": [
        {
          "internalType": "uint256",
          "name": "_tokenId",
          "type": "uint256"
        }
      ],
      "name": "purchaseToken",
      "outputs": [],
      "stateMutability": "payable",
      "type": "function"
    },
    {
      "inputs": [],
      "name": "renounceOwnership",
      "outputs": [],
      "stateMutability": "nonpayable",
      "type": "function"
    },
    {
      "inputs": [
        {
          "internalType": "address",
          "name": "from",
          "type": "address"
        },
        {
          "internalType": "address",
          "name": "to",
          "type": "address"
        },
        {
          "internalType": "uint256",
          "name": "tokenId",
          "type": "uint256"
        }
      ],
      "name": "safeTransferFrom",
      "outputs": [],
      "stateMutability": "nonpayable",
      "type": "function"
    },
    {
      "inputs": [
        {
          "internalType": "address",
          "name": "from",
          "type": "address"
        },
        {
          "internalType": "address",
          "name": "to",
          "type": "address"
        },
        {
          "internalType": "uint256",
          "name": "tokenId",
          "type": "uint256"
        },
        {
          "internalType": "bytes",
          "name": "_data",
          "type": "bytes"
        }
      ],
      "name": "safeTransferFrom",
      "outputs": [],
      "stateMutability": "nonpayable",
      "type": "function"
    },
    {
      "inputs": [
        {
          "internalType": "address",
          "name": "operator",
          "type": "address"
        },
        {
          "internalType": "bool",
          "name": "approved",
          "type": "bool"
        }
      ],
      "name": "setApprovalForAll",
      "outputs": [],
      "stateMutability": "nonpayable",
      "type": "function"
    },
    {
      "inputs": [
        {
          "internalType": "uint256",
          "name": "collectionID",
          "type": "uint256"
        },
        {
          "internalType": "string",
          "name": "_collectionURI",
          "type": "string"
        }
      ],
      "name": "setCollection",
      "outputs": [],
      "stateMutability": "nonpayable",
      "type": "function"
    },
    {
      "inputs": [
        {
          "internalType": "address",
          "name": "_address",
          "type": "address"
        }
      ],
      "name": "setDonateAddress",
      "outputs": [],
      "stateMutability": "nonpayable",
      "type": "function"
    },
    {
      "inputs": [
        {
          "internalType": "uint256",
          "name": "_rate",
          "type": "uint256"
        }
      ],
      "name": "setDonateRate",
      "outputs": [],
      "stateMutability": "nonpayable",
      "type": "function"
    },
    {
      "inputs": [
        {
          "internalType": "uint256",
          "name": "_price",
          "type": "uint256"
        }
      ],
      "name": "setPrice",
      "outputs": [],
      "stateMutability": "nonpayable",
      "type": "function"
    },
    {
      "inputs": [
        {
          "internalType": "bytes4",
          "name": "interfaceId",
          "type": "bytes4"
        }
      ],
      "name": "supportsInterface",
      "outputs": [
        {
          "internalType": "bool",
          "name": "",
          "type": "bool"
        }
      ],
      "stateMutability": "view",
      "type": "function"
    },
    {
      "inputs": [],
      "name": "symbol",
      "outputs": [
        {
          "internalType": "string",
          "name": "",
          "type": "string"
        }
      ],
      "stateMutability": "view",
      "type": "function"
    },
    {
      "inputs": [
        {
          "internalType": "uint256",
          "name": "index",
          "type": "uint256"
        }
      ],
      "name": "tokenByIndex",
      "outputs": [
        {
          "internalType": "uint256",
          "name": "",
          "type": "uint256"
        }
      ],
      "stateMutability": "view",
      "type": "function"
    },
    {
      "inputs": [
        {
          "internalType": "address",
          "name": "owner",
          "type": "address"
        },
        {
          "internalType": "uint256",
          "name": "index",
          "type": "uint256"
        }
      ],
      "name": "tokenOfOwnerByIndex",
      "outputs": [
        {
          "internalType": "uint256",
          "name": "",
          "type": "uint256"
        }
      ],
      "stateMutability": "view",
      "type": "function"
    },
    {
      "inputs": [
        {
          "internalType": "uint256",
          "name": "tokenId",
          "type": "uint256"
        }
      ],
      "name": "tokenURI",
      "outputs": [
        {
          "internalType": "string",
          "name": "",
          "type": "string"
        }
      ],
      "stateMutability": "view",
      "type": "function"
    },
    {
      "inputs": [
        {
          "internalType": "address",
          "name": "_owner",
          "type": "address"
        }
      ],
      "name": "tokenURIsOfOwner",
      "outputs": [
        {
          "internalType": "string[]",
          "name": "",
          "type": "string[]"
        }
      ],
      "stateMutability": "view",
      "type": "function"
    },
    {
      "inputs": [
        {
          "internalType": "address",
          "name": "_owner",
          "type": "address"
        }
      ],
      "name": "tokensOfOwner",
      "outputs": [
        {
          "internalType": "uint256[]",
          "name": "",
          "type": "uint256[]"
        }
      ],
      "stateMutability": "view",
      "type": "function"
    },
    {
      "inputs": [],
      "name": "totalBalance",
      "outputs": [
        {
          "internalType": "uint256",
          "name": "",
          "type": "uint256"
        }
      ],
      "stateMutability": "view",
      "type": "function"
    },
    {
      "inputs": [],
      "name": "totalSupply",
      "outputs": [
        {
          "internalType": "uint256",
          "name": "",
          "type": "uint256"
        }
      ],
      "stateMutability": "view",
      "type": "function"
    },
    {
      "inputs": [
        {
          "internalType": "address",
          "name": "from",
          "type": "address"
        },
        {
          "internalType": "address",
          "name": "to",
          "type": "address"
        },
        {
          "internalType": "uint256",
          "name": "tokenId",
          "type": "uint256"
        }
      ],
      "name": "transferFrom",
      "outputs": [],
      "stateMutability": "nonpayable",
      "type": "function"
    },
    {
      "inputs": [
        {
          "internalType": "address",
          "name": "newOwner",
          "type": "address"
        }
      ],
      "name": "transferOwnership",
      "outputs": [],
      "stateMutability": "nonpayable",
      "type": "function"
    },
    {
      "inputs": [],
      "name": "withdraw",
      "outputs": [],
      "stateMutability": "payable",
      "type": "function"
    }
  ],
  "bytecode": "0x608060405266b1a2bc2ec50000600e556014600f553480156200002157600080fd5b506040518060400160405280600f81526020017f5065616365203220556b7261696e6500000000000000000000000000000000008152506040518060400160405280600d81526020017f504541434532554b5241494e45000000000000000000000000000000000000008152508160009080519060200190620000a6929190620001b6565b508060019080519060200190620000bf929190620001b6565b505050620000e2620000d6620000e860201b60201c565b620000f060201b60201c565b620002cb565b600033905090565b6000600a60009054906101000a900473ffffffffffffffffffffffffffffffffffffffff16905081600a60006101000a81548173ffffffffffffffffffffffffffffffffffffffff021916908373ffffffffffffffffffffffffffffffffffffffff1602179055508173ffffffffffffffffffffffffffffffffffffffff168173ffffffffffffffffffffffffffffffffffffffff167f8be0079c531659141344cd1fd0a4f28419497f9722a3daafe3b4186f6b6457e060405160405180910390a35050565b828054620001c49062000266565b90600052602060002090601f016020900481019282620001e8576000855562000234565b82601f106200020357805160ff191683800117855562000234565b8280016001018555821562000234579182015b828111156200023357825182559160200191906001019062000216565b5b50905062000243919062000247565b5090565b5b808211156200026257600081600090555060010162000248565b5090565b600060028204905060018216806200027f57607f821691505b602082108114156200029657620002956200029c565b5b50919050565b7f4e487b7100000000000000000000000000000000000000000000000000000000600052602260045260246000fd5b61580b80620002db6000396000f3fe6080604052600436106102465760003560e01c806365f07eea11610139578063a035b1fe116100b6578063c2db2c421161007a578063c2db2c4214610884578063c87b56dd146108a0578063e939427c146108dd578063e985e9c514610908578063f2fde38b14610945578063fc1dfc421461096e57610246565b8063a035b1fe1461079f578063a0e939e9146107ca578063a22cb46514610807578063ad7a672f14610830578063b88d4fde1461085b57610246565b80638462151c116100fd5780638462151c146106a65780638da5cb5b146106e357806391b7f5ed1461070e57806394bcce4b1461073757806395d89b411461077457610246565b806365f07eea146105d35780636804a958146105fe57806370a0823114610629578063715018a614610666578063797ecfcb1461067d57610246565b806323b872dd116101c757806342842e0e1161018b57806342842e0e146104de57806347c0474a146105075780634f6ccce714610530578063592e03551461056d5780636352211e1461059657610246565b806323b872dd1461041a5780632890e0d7146104435780632f745c591461046c57806332cb6b0c146104a95780633ccfd60b146104d457610246565b806318160ddd1161020e57806318160ddd1461034457806319a49e3a1461036f5780631a0c9831146103ac5780631a76c647146103c857806322b5dabd146103f157610246565b806301ffc9a71461024b57806306fdde0314610288578063081812fc146102b3578063095ea7b3146102f057806309d42b3014610319575b600080fd5b34801561025757600080fd5b50610272600480360381019061026d9190613f36565b610997565b60405161027f91906147a0565b60405180910390f35b34801561029457600080fd5b5061029d610a11565b6040516102aa91906147bb565b60405180910390f35b3480156102bf57600080fd5b506102da60048036038101906102d59190613fc9565b610aa3565b6040516102e791906146be565b60405180910390f35b3480156102fc57600080fd5b5061031760048036038101906103129190613efa565b610b28565b005b34801561032557600080fd5b5061032e610c40565b60405161033b9190614b3d565b60405180910390f35b34801561035057600080fd5b50610359610c45565b6040516103669190614b3d565b60405180910390f35b34801561037b57600080fd5b5061039660048036038101906103919190613fc9565b610c52565b6040516103a391906147bb565b60405180910390f35b6103c660048036038101906103c19190613fc9565b610d6f565b005b3480156103d457600080fd5b506103ef60048036038101906103ea9190614046565b610e97565b005b3480156103fd57600080fd5b5061041860048036038101906104139190613f88565b610ef4565b005b34801561042657600080fd5b50610441600480360381019061043c9190613df4565b610fe3565b005b34801561044f57600080fd5b5061046a60048036038101906104659190613fc9565b611043565b005b34801561047857600080fd5b50610493600480360381019061048e9190613efa565b6110cb565b6040516104a09190614b3d565b60405180910390f35b3480156104b557600080fd5b506104be611170565b6040516104cb9190614b3d565b60405180910390f35b6104dc611176565b005b3480156104ea57600080fd5b5061050560048036038101906105009190613df4565b6114c3565b005b34801561051357600080fd5b5061052e60048036038101906105299190613ff2565b6114e3565b005b34801561053c57600080fd5b5061055760048036038101906105529190613fc9565b611681565b6040516105649190614b3d565b60405180910390f35b34801561057957600080fd5b50610594600480360381019061058f9190613f88565b611718565b005b3480156105a257600080fd5b506105bd60048036038101906105b89190613fc9565b611757565b6040516105ca91906146be565b60405180910390f35b3480156105df57600080fd5b506105e8611809565b6040516105f59190614b3d565b60405180910390f35b34801561060a57600080fd5b5061061361180f565b604051610620919061475c565b60405180910390f35b34801561063557600080fd5b50610650600480360381019061064b9190613d8f565b6118e8565b60405161065d9190614b3d565b60405180910390f35b34801561067257600080fd5b5061067b6119a0565b005b34801561068957600080fd5b506106a4600480360381019061069f9190613d8f565b611a28565b005b3480156106b257600080fd5b506106cd60048036038101906106c89190613d8f565b611b5a565b6040516106da919061477e565b60405180910390f35b3480156106ef57600080fd5b506106f8611c54565b60405161070591906146be565b60405180910390f35b34801561071a57600080fd5b5061073560048036038101906107309190613fc9565b611c7e565b005b34801561074357600080fd5b5061075e60048036038101906107599190613fc9565b611d11565b60405161076b91906147bb565b60405180910390f35b34801561078057600080fd5b50610789611dbd565b60405161079691906147bb565b60405180910390f35b3480156107ab57600080fd5b506107b4611e4f565b6040516107c19190614b3d565b60405180910390f35b3480156107d657600080fd5b506107f160048036038101906107ec9190613d8f565b611e55565b6040516107fe919061475c565b60405180910390f35b34801561081357600080fd5b5061082e60048036038101906108299190613ebe565b611f61565b005b34801561083c57600080fd5b50610845611f77565b6040516108529190614b3d565b60405180910390f35b34801561086757600080fd5b50610882600480360381019061087d9190613e43565b611f7f565b005b61089e60048036038101906108999190613fc9565b611fe1565b005b3480156108ac57600080fd5b506108c760048036038101906108c29190613fc9565b612127565b6040516108d491906147bb565b60405180910390f35b3480156108e957600080fd5b506108f2612279565b6040516108ff9190614b3d565b60405180910390f35b34801561091457600080fd5b5061092f600480360381019061092a9190613db8565b61228a565b60405161093c91906147a0565b60405180910390f35b34801561095157600080fd5b5061096c60048036038101906109679190613d8f565b61231e565b005b34801561097a57600080fd5b5061099560048036038101906109909190613fc9565b612416565b005b60007f780e9d63000000000000000000000000000000000000000000000000000000007bffffffffffffffffffffffffffffffffffffffffffffffffffffffff1916827bffffffffffffffffffffffffffffffffffffffffffffffffffffffff19161480610a0a5750610a09826124a9565b5b9050919050565b606060008054610a2090614ea7565b80601f0160208091040260200160405190810160405280929190818152602001828054610a4c90614ea7565b8015610a995780601f10610a6e57610100808354040283529160200191610a99565b820191906000526020600020905b815481529060010190602001808311610a7c57829003601f168201915b5050505050905090565b6000610aae8261258b565b610aed576040517f08c379a0000000000000000000000000000000000000000000000000000000008152600401610ae490614a1d565b60405180910390fd5b6004600083815260200190815260200160002060009054906101000a900473ffffffffffffffffffffffffffffffffffffffff169050919050565b6000610b3382611757565b90508073ffffffffffffffffffffffffffffffffffffffff168373ffffffffffffffffffffffffffffffffffffffff161415610ba4576040517f08c379a0000000000000000000000000000000000000000000000000000000008152600401610b9b90614a7d565b60405180910390fd5b8073ffffffffffffffffffffffffffffffffffffffff16610bc36125f7565b73ffffffffffffffffffffffffffffffffffffffff161480610bf25750610bf181610bec6125f7565b61228a565b5b610c31576040517f08c379a0000000000000000000000000000000000000000000000000000000008152600401610c289061493d565b60405180910390fd5b610c3b83836125ff565b505050565b600a81565b6000600880549050905090565b6060600c805490508210610c9b576040517f08c379a0000000000000000000000000000000000000000000000000000000008152600401610c9290614afd565b60405180910390fd5b600c8281548110610cd5577f4e487b7100000000000000000000000000000000000000000000000000000000600052603260045260246000fd5b906000526020600020018054610cea90614ea7565b80601f0160208091040260200160405190810160405280929190818152602001828054610d1690614ea7565b8015610d635780601f10610d3857610100808354040283529160200191610d63565b820191906000526020600020905b815481529060010190602001808311610d4657829003601f168201915b50505050509050919050565b610d776125f7565b73ffffffffffffffffffffffffffffffffffffffff16610d95611c54565b73ffffffffffffffffffffffffffffffffffffffff1614610deb576040517f08c379a0000000000000000000000000000000000000000000000000000000008152600401610de290614a3d565b60405180910390fd5b6000600c8281548110610e27577f4e487b7100000000000000000000000000000000000000000000000000000000600052603260045260246000fd5b906000526020600020018054610e3c90614ea7565b905014610e9457600c8181548110610e7d577f4e487b7100000000000000000000000000000000000000000000000000000000600052603260045260246000fd5b906000526020600020016000610e939190613ac3565b5b50565b80600c8381548110610ed2577f4e487b7100000000000000000000000000000000000000000000000000000000600052603260045260246000fd5b906000526020600020019080519060200190610eef929190613b03565b505050565b610efc6125f7565b73ffffffffffffffffffffffffffffffffffffffff16610f1a611c54565b73ffffffffffffffffffffffffffffffffffffffff1614610f70576040517f08c379a0000000000000000000000000000000000000000000000000000000008152600401610f6790614a3d565b60405180910390fd5b6000610f7c600d6126b8565b90506103e8610f956001836126c690919063ffffffff16565b1115610fd6576040517f08c379a0000000000000000000000000000000000000000000000000000000008152600401610fcd906148fd565b60405180910390fd5b610fdf826126dc565b5050565b610ff4610fee6125f7565b82612717565b611033576040517f08c379a000000000000000000000000000000000000000000000000000000000815260040161102a90614abd565b60405180910390fd5b61103e8383836127f5565b505050565b61104b6125f7565b73ffffffffffffffffffffffffffffffffffffffff16611069611c54565b73ffffffffffffffffffffffffffffffffffffffff16146110bf576040517f08c379a00000000000000000000000000000000000000000000000000000000081526004016110b690614a3d565b60405180910390fd5b6110c881612a5c565b50565b60006110d6836118e8565b8210611117576040517f08c379a000000000000000000000000000000000000000000000000000000000815260040161110e9061481d565b60405180910390fd5b600660008473ffffffffffffffffffffffffffffffffffffffff1673ffffffffffffffffffffffffffffffffffffffff168152602001908152602001600020600083815260200190815260200160002054905092915050565b6103e881565b61117e6125f7565b73ffffffffffffffffffffffffffffffffffffffff1661119c611c54565b73ffffffffffffffffffffffffffffffffffffffff16146111f2576040517f08c379a00000000000000000000000000000000000000000000000000000000081526004016111e990614a3d565b60405180910390fd5b60004790506000811161123a576040517f08c379a0000000000000000000000000000000000000000000000000000000008152600401611231906149dd565b60405180910390fd5b600073ffffffffffffffffffffffffffffffffffffffff16601060009054906101000a900473ffffffffffffffffffffffffffffffffffffffff1673ffffffffffffffffffffffffffffffffffffffff16141580156112e757503073ffffffffffffffffffffffffffffffffffffffff16601060009054906101000a900473ffffffffffffffffffffffffffffffffffffffff1673ffffffffffffffffffffffffffffffffffffffff1614155b611326576040517f08c379a000000000000000000000000000000000000000000000000000000000815260040161131d906147fd565b60405180910390fd5b6000611330612aaf565b9050600081836113409190614dbd565b905060003373ffffffffffffffffffffffffffffffffffffffff1682604051611368906146a9565b60006040518083038185875af1925050503d80600081146113a5576040519150601f19603f3d011682016040523d82523d6000602084013e6113aa565b606091505b505090506000601060009054906101000a900473ffffffffffffffffffffffffffffffffffffffff1673ffffffffffffffffffffffffffffffffffffffff16846040516113f6906146a9565b60006040518083038185875af1925050503d8060008114611433576040519150601f19603f3d011682016040523d82523d6000602084013e611438565b606091505b505090508161147c576040517f08c379a000000000000000000000000000000000000000000000000000000000815260040161147390614a9d565b60405180910390fd5b806114bc576040517f08c379a00000000000000000000000000000000000000000000000000000000081526004016114b390614a9d565b60405180910390fd5b5050505050565b6114de83838360405180602001604052806000815250611f7f565b505050565b6114eb6125f7565b73ffffffffffffffffffffffffffffffffffffffff16611509611c54565b73ffffffffffffffffffffffffffffffffffffffff161461155f576040517f08c379a000000000000000000000000000000000000000000000000000000000815260040161155690614a3d565b60405180910390fd5b600061156b600d6126b8565b90506103e861158384836126c690919063ffffffff16565b11156115c4576040517f08c379a00000000000000000000000000000000000000000000000000000000081526004016115bb906148fd565b60405180910390fd5b6000831180156115d55750600a8311155b611614576040517f08c379a000000000000000000000000000000000000000000000000000000000815260040161160b90614b1d565b60405180910390fd5b60005b8381101561167b5761166883828151811061165b577f4e487b7100000000000000000000000000000000000000000000000000000000600052603260045260246000fd5b60200260200101516126dc565b808061167390614f0a565b915050611617565b50505050565b600061168b610c45565b82106116cc576040517f08c379a00000000000000000000000000000000000000000000000000000000081526004016116c390614add565b60405180910390fd5b60088281548110611706577f4e487b7100000000000000000000000000000000000000000000000000000000600052603260045260246000fd5b90600052602060002001549050919050565b600c81908060018154018082558091505060019003906000526020600020016000909190919091509080519060200190611753929190613b03565b5050565b6000806002600084815260200190815260200160002060009054906101000a900473ffffffffffffffffffffffffffffffffffffffff169050600073ffffffffffffffffffffffffffffffffffffffff168173ffffffffffffffffffffffffffffffffffffffff161415611800576040517f08c379a00000000000000000000000000000000000000000000000000000000081526004016117f79061497d565b60405180910390fd5b80915050919050565b600f5481565b6060600c805480602002602001604051908101604052809291908181526020016000905b828210156118df57838290600052602060002001805461185290614ea7565b80601f016020809104026020016040519081016040528092919081815260200182805461187e90614ea7565b80156118cb5780601f106118a0576101008083540402835291602001916118cb565b820191906000526020600020905b8154815290600101906020018083116118ae57829003601f168201915b505050505081526020019060010190611833565b50505050905090565b60008073ffffffffffffffffffffffffffffffffffffffff168273ffffffffffffffffffffffffffffffffffffffff161415611959576040517f08c379a00000000000000000000000000000000000000000000000000000000081526004016119509061495d565b60405180910390fd5b600360008373ffffffffffffffffffffffffffffffffffffffff1673ffffffffffffffffffffffffffffffffffffffff168152602001908152602001600020549050919050565b6119a86125f7565b73ffffffffffffffffffffffffffffffffffffffff166119c6611c54565b73ffffffffffffffffffffffffffffffffffffffff1614611a1c576040517f08c379a0000000000000000000000000000000000000000000000000000000008152600401611a1390614a3d565b60405180910390fd5b611a266000612ae9565b565b611a306125f7565b73ffffffffffffffffffffffffffffffffffffffff16611a4e611c54565b73ffffffffffffffffffffffffffffffffffffffff1614611aa4576040517f08c379a0000000000000000000000000000000000000000000000000000000008152600401611a9b90614a3d565b60405180910390fd5b600073ffffffffffffffffffffffffffffffffffffffff168173ffffffffffffffffffffffffffffffffffffffff1614158015611b0d57503073ffffffffffffffffffffffffffffffffffffffff168173ffffffffffffffffffffffffffffffffffffffff1614155b611b1657600080fd5b80601060006101000a81548173ffffffffffffffffffffffffffffffffffffffff021916908373ffffffffffffffffffffffffffffffffffffffff16021790555050565b60606000611b67836118e8565b905060008167ffffffffffffffff811115611bab577f4e487b7100000000000000000000000000000000000000000000000000000000600052604160045260246000fd5b604051908082528060200260200182016040528015611bd95781602001602082028036833780820191505090505b50905060005b82811015611c4957611bf185826110cb565b828281518110611c2a577f4e487b7100000000000000000000000000000000000000000000000000000000600052603260045260246000fd5b6020026020010181815250508080611c4190614f0a565b915050611bdf565b508092505050919050565b6000600a60009054906101000a900473ffffffffffffffffffffffffffffffffffffffff16905090565b611c866125f7565b73ffffffffffffffffffffffffffffffffffffffff16611ca4611c54565b73ffffffffffffffffffffffffffffffffffffffff1614611cfa576040517f08c379a0000000000000000000000000000000000000000000000000000000008152600401611cf190614a3d565b60405180910390fd5b60008111611d0757600080fd5b80600e8190555050565b600c8181548110611d2157600080fd5b906000526020600020016000915090508054611d3c90614ea7565b80601f0160208091040260200160405190810160405280929190818152602001828054611d6890614ea7565b8015611db55780601f10611d8a57610100808354040283529160200191611db5565b820191906000526020600020905b815481529060010190602001808311611d9857829003601f168201915b505050505081565b606060018054611dcc90614ea7565b80601f0160208091040260200160405190810160405280929190818152602001828054611df890614ea7565b8015611e455780601f10611e1a57610100808354040283529160200191611e45565b820191906000526020600020905b815481529060010190602001808311611e2857829003601f168201915b5050505050905090565b600e5481565b60606000611e62836118e8565b905060008167ffffffffffffffff811115611ea6577f4e487b7100000000000000000000000000000000000000000000000000000000600052604160045260246000fd5b604051908082528060200260200182016040528015611ed957816020015b6060815260200190600190039081611ec45790505b50905060005b82811015611f56576000611ef386836110cb565b9050611efe81612127565b838381518110611f37577f4e487b7100000000000000000000000000000000000000000000000000000000600052603260045260246000fd5b6020026020010181905250508080611f4e90614f0a565b915050611edf565b508092505050919050565b611f73611f6c6125f7565b8383612baf565b5050565b600047905090565b611f90611f8a6125f7565b83612717565b611fcf576040517f08c379a0000000000000000000000000000000000000000000000000000000008152600401611fc690614abd565b60405180910390fd5b611fdb84848484612d1c565b50505050565b600073ffffffffffffffffffffffffffffffffffffffff163373ffffffffffffffffffffffffffffffffffffffff161415801561204a57503073ffffffffffffffffffffffffffffffffffffffff163373ffffffffffffffffffffffffffffffffffffffff1614155b61205357600080fd5b600e54341015612098576040517f08c379a000000000000000000000000000000000000000000000000000000000815260040161208f906147dd565b60405180910390fd5b6120a2600d6126b8565b81106120ad57600080fd5b3073ffffffffffffffffffffffffffffffffffffffff166323b872dd6120d283611757565b33846040518463ffffffff1660e01b81526004016120f2939291906146d9565b600060405180830381600087803b15801561210c57600080fd5b505af1158015612120573d6000803e3d6000fd5b5050505050565b60606121328261258b565b612171576040517f08c379a0000000000000000000000000000000000000000000000000000000008152600401612168906149fd565b60405180910390fd5b6000600b6000848152602001908152602001600020805461219190614ea7565b80601f01602080910402602001604051908101604052809291908181526020018280546121bd90614ea7565b801561220a5780601f106121df5761010080835404028352916020019161220a565b820191906000526020600020905b8154815290600101906020018083116121ed57829003601f168201915b50505050509050600061221b612d78565b9050600081511415612231578192505050612274565b60008251111561226657808260405160200161224e929190614685565b60405160208183030381529060405292505050612274565b61226f84612d8f565b925050505b919050565b6000612285600d6126b8565b905090565b6000600560008473ffffffffffffffffffffffffffffffffffffffff1673ffffffffffffffffffffffffffffffffffffffff16815260200190815260200160002060008373ffffffffffffffffffffffffffffffffffffffff1673ffffffffffffffffffffffffffffffffffffffff16815260200190815260200160002060009054906101000a900460ff16905092915050565b6123266125f7565b73ffffffffffffffffffffffffffffffffffffffff16612344611c54565b73ffffffffffffffffffffffffffffffffffffffff161461239a576040517f08c379a000000000000000000000000000000000000000000000000000000000815260040161239190614a3d565b60405180910390fd5b600073ffffffffffffffffffffffffffffffffffffffff168173ffffffffffffffffffffffffffffffffffffffff16141561240a576040517f08c379a00000000000000000000000000000000000000000000000000000000081526004016124019061485d565b60405180910390fd5b61241381612ae9565b50565b61241e6125f7565b73ffffffffffffffffffffffffffffffffffffffff1661243c611c54565b73ffffffffffffffffffffffffffffffffffffffff1614612492576040517f08c379a000000000000000000000000000000000000000000000000000000000815260040161248990614a3d565b60405180910390fd5b6000811161249f57600080fd5b80600f8190555050565b60007f80ac58cd000000000000000000000000000000000000000000000000000000007bffffffffffffffffffffffffffffffffffffffffffffffffffffffff1916827bffffffffffffffffffffffffffffffffffffffffffffffffffffffff1916148061257457507f5b5e139f000000000000000000000000000000000000000000000000000000007bffffffffffffffffffffffffffffffffffffffffffffffffffffffff1916827bffffffffffffffffffffffffffffffffffffffffffffffffffffffff1916145b80612584575061258382612e36565b5b9050919050565b60008073ffffffffffffffffffffffffffffffffffffffff166002600084815260200190815260200160002060009054906101000a900473ffffffffffffffffffffffffffffffffffffffff1673ffffffffffffffffffffffffffffffffffffffff1614159050919050565b600033905090565b816004600083815260200190815260200160002060006101000a81548173ffffffffffffffffffffffffffffffffffffffff021916908373ffffffffffffffffffffffffffffffffffffffff160217905550808273ffffffffffffffffffffffffffffffffffffffff1661267283611757565b73ffffffffffffffffffffffffffffffffffffffff167f8c5be1e5ebec7d5bd14f71427d1e84f3dd0314c0f7b2291e5b200ac8c7c3b92560405160405180910390a45050565b600081600001549050919050565b600081836126d49190614cdc565b905092915050565b60006126e8600d6126b8565b90506126f43382612ea0565b6126fe8183612ebe565b612708600d612f32565b612713306001611f61565b5050565b60006127228261258b565b612761576040517f08c379a00000000000000000000000000000000000000000000000000000000081526004016127589061491d565b60405180910390fd5b600061276c83611757565b90508073ffffffffffffffffffffffffffffffffffffffff168473ffffffffffffffffffffffffffffffffffffffff1614806127db57508373ffffffffffffffffffffffffffffffffffffffff166127c384610aa3565b73ffffffffffffffffffffffffffffffffffffffff16145b806127ec57506127eb818561228a565b5b91505092915050565b8273ffffffffffffffffffffffffffffffffffffffff1661281582611757565b73ffffffffffffffffffffffffffffffffffffffff161461286b576040517f08c379a00000000000000000000000000000000000000000000000000000000081526004016128629061487d565b60405180910390fd5b600073ffffffffffffffffffffffffffffffffffffffff168273ffffffffffffffffffffffffffffffffffffffff1614156128db576040517f08c379a00000000000000000000000000000000000000000000000000000000081526004016128d2906148bd565b60405180910390fd5b6128e6838383612f48565b6128f16000826125ff565b6001600360008573ffffffffffffffffffffffffffffffffffffffff1673ffffffffffffffffffffffffffffffffffffffff16815260200190815260200160002060008282546129419190614dbd565b925050819055506001600360008473ffffffffffffffffffffffffffffffffffffffff1673ffffffffffffffffffffffffffffffffffffffff16815260200190815260200160002060008282546129989190614cdc565b92505081905550816002600083815260200190815260200160002060006101000a81548173ffffffffffffffffffffffffffffffffffffffff021916908373ffffffffffffffffffffffffffffffffffffffff160217905550808273ffffffffffffffffffffffffffffffffffffffff168473ffffffffffffffffffffffffffffffffffffffff167fddf252ad1be2c89b69c2b068fc378daa952ba7f163c4a11628f55a4df523b3ef60405160405180910390a4612a5783838361305c565b505050565b612a6581613061565b6000600b60008381526020019081526020016000208054612a8590614ea7565b905014612aac57600b60008281526020019081526020016000206000612aab9190613ac3565b5b50565b6000804790506000612adf6064612ad1600f548561317e90919063ffffffff16565b61319490919063ffffffff16565b9050809250505090565b6000600a60009054906101000a900473ffffffffffffffffffffffffffffffffffffffff16905081600a60006101000a81548173ffffffffffffffffffffffffffffffffffffffff021916908373ffffffffffffffffffffffffffffffffffffffff1602179055508173ffffffffffffffffffffffffffffffffffffffff168173ffffffffffffffffffffffffffffffffffffffff167f8be0079c531659141344cd1fd0a4f28419497f9722a3daafe3b4186f6b6457e060405160405180910390a35050565b8173ffffffffffffffffffffffffffffffffffffffff168373ffffffffffffffffffffffffffffffffffffffff161415612c1e576040517f08c379a0000000000000000000000000000000000000000000000000000000008152600401612c15906148dd565b60405180910390fd5b80600560008573ffffffffffffffffffffffffffffffffffffffff1673ffffffffffffffffffffffffffffffffffffffff16815260200190815260200160002060008473ffffffffffffffffffffffffffffffffffffffff1673ffffffffffffffffffffffffffffffffffffffff16815260200190815260200160002060006101000a81548160ff0219169083151502179055508173ffffffffffffffffffffffffffffffffffffffff168373ffffffffffffffffffffffffffffffffffffffff167f17307eab39ab6107e8899845ad3d59bd9653f200f220920489ca2b5937696c3183604051612d0f91906147a0565b60405180910390a3505050565b612d278484846127f5565b612d33848484846131aa565b612d72576040517f08c379a0000000000000000000000000000000000000000000000000000000008152600401612d699061483d565b60405180910390fd5b50505050565b606060405180602001604052806000815250905090565b6060612d9a8261258b565b612dd9576040517f08c379a0000000000000000000000000000000000000000000000000000000008152600401612dd090614a5d565b60405180910390fd5b6000612de3612d78565b90506000815111612e035760405180602001604052806000815250612e2e565b80612e0d84613341565b604051602001612e1e929190614685565b6040516020818303038152906040525b915050919050565b60007f01ffc9a7000000000000000000000000000000000000000000000000000000007bffffffffffffffffffffffffffffffffffffffffffffffffffffffff1916827bffffffffffffffffffffffffffffffffffffffffffffffffffffffff1916149050919050565b612eba8282604051806020016040528060008152506134ee565b5050565b612ec78261258b565b612f06576040517f08c379a0000000000000000000000000000000000000000000000000000000008152600401612efd9061499d565b60405180910390fd5b80600b60008481526020019081526020016000209080519060200190612f2d929190613b03565b505050565b6001816000016000828254019250508190555050565b612f53838383613549565b600073ffffffffffffffffffffffffffffffffffffffff168373ffffffffffffffffffffffffffffffffffffffff161415612f9657612f918161354e565b612fd5565b8173ffffffffffffffffffffffffffffffffffffffff168373ffffffffffffffffffffffffffffffffffffffff1614612fd457612fd38382613597565b5b5b600073ffffffffffffffffffffffffffffffffffffffff168273ffffffffffffffffffffffffffffffffffffffff1614156130185761301381613704565b613057565b8273ffffffffffffffffffffffffffffffffffffffff168273ffffffffffffffffffffffffffffffffffffffff1614613056576130558282613847565b5b5b505050565b505050565b600061306c82611757565b905061307a81600084612f48565b6130856000836125ff565b6001600360008373ffffffffffffffffffffffffffffffffffffffff1673ffffffffffffffffffffffffffffffffffffffff16815260200190815260200160002060008282546130d59190614dbd565b925050819055506002600083815260200190815260200160002060006101000a81549073ffffffffffffffffffffffffffffffffffffffff021916905581600073ffffffffffffffffffffffffffffffffffffffff168273ffffffffffffffffffffffffffffffffffffffff167fddf252ad1be2c89b69c2b068fc378daa952ba7f163c4a11628f55a4df523b3ef60405160405180910390a461317a8160008461305c565b5050565b6000818361318c9190614d63565b905092915050565b600081836131a29190614d32565b905092915050565b60006131cb8473ffffffffffffffffffffffffffffffffffffffff166138c6565b15613334578373ffffffffffffffffffffffffffffffffffffffff1663150b7a026131f46125f7565b8786866040518563ffffffff1660e01b81526004016132169493929190614710565b602060405180830381600087803b15801561323057600080fd5b505af192505050801561326157506040513d601f19601f8201168201806040525081019061325e9190613f5f565b60015b6132e4573d8060008114613291576040519150601f19603f3d011682016040523d82523d6000602084013e613296565b606091505b506000815114156132dc576040517f08c379a00000000000000000000000000000000000000000000000000000000081526004016132d39061483d565b60405180910390fd5b805181602001fd5b63150b7a0260e01b7bffffffffffffffffffffffffffffffffffffffffffffffffffffffff1916817bffffffffffffffffffffffffffffffffffffffffffffffffffffffff191614915050613339565b600190505b949350505050565b60606000821415613389576040518060400160405280600181526020017f300000000000000000000000000000000000000000000000000000000000000081525090506134e9565b600082905060005b600082146133bb5780806133a490614f0a565b915050600a826133b49190614d32565b9150613391565b60008167ffffffffffffffff8111156133fd577f4e487b7100000000000000000000000000000000000000000000000000000000600052604160045260246000fd5b6040519080825280601f01601f19166020018201604052801561342f5781602001600182028036833780820191505090505b5090505b600085146134e2576001826134489190614dbd565b9150600a856134579190614f53565b60306134639190614cdc565b60f81b81838151811061349f577f4e487b7100000000000000000000000000000000000000000000000000000000600052603260045260246000fd5b60200101907effffffffffffffffffffffffffffffffffffffffffffffffffffffffffffff1916908160001a905350600a856134db9190614d32565b9450613433565b8093505050505b919050565b6134f883836138e9565b61350560008484846131aa565b613544576040517f08c379a000000000000000000000000000000000000000000000000000000000815260040161353b9061483d565b60405180910390fd5b505050565b505050565b6008805490506009600083815260200190815260200160002081905550600881908060018154018082558091505060019003906000526020600020016000909190919091505550565b600060016135a4846118e8565b6135ae9190614dbd565b9050600060076000848152602001908152602001600020549050818114613693576000600660008673ffffffffffffffffffffffffffffffffffffffff1673ffffffffffffffffffffffffffffffffffffffff168152602001908152602001600020600084815260200190815260200160002054905080600660008773ffffffffffffffffffffffffffffffffffffffff1673ffffffffffffffffffffffffffffffffffffffff168152602001908152602001600020600084815260200190815260200160002081905550816007600083815260200190815260200160002081905550505b6007600084815260200190815260200160002060009055600660008573ffffffffffffffffffffffffffffffffffffffff1673ffffffffffffffffffffffffffffffffffffffff16815260200190815260200160002060008381526020019081526020016000206000905550505050565b600060016008805490506137189190614dbd565b905060006009600084815260200190815260200160002054905060006008838154811061376e577f4e487b7100000000000000000000000000000000000000000000000000000000600052603260045260246000fd5b9060005260206000200154905080600883815481106137b6577f4e487b7100000000000000000000000000000000000000000000000000000000600052603260045260246000fd5b90600052602060002001819055508160096000838152602001908152602001600020819055506009600085815260200190815260200160002060009055600880548061382b577f4e487b7100000000000000000000000000000000000000000000000000000000600052603160045260246000fd5b6001900381819060005260206000200160009055905550505050565b6000613852836118e8565b905081600660008573ffffffffffffffffffffffffffffffffffffffff1673ffffffffffffffffffffffffffffffffffffffff168152602001908152602001600020600083815260200190815260200160002081905550806007600084815260200190815260200160002081905550505050565b6000808273ffffffffffffffffffffffffffffffffffffffff163b119050919050565b600073ffffffffffffffffffffffffffffffffffffffff168273ffffffffffffffffffffffffffffffffffffffff161415613959576040517f08c379a0000000000000000000000000000000000000000000000000000000008152600401613950906149bd565b60405180910390fd5b6139628161258b565b156139a2576040517f08c379a00000000000000000000000000000000000000000000000000000000081526004016139999061489d565b60405180910390fd5b6139ae60008383612f48565b6001600360008473ffffffffffffffffffffffffffffffffffffffff1673ffffffffffffffffffffffffffffffffffffffff16815260200190815260200160002060008282546139fe9190614cdc565b92505081905550816002600083815260200190815260200160002060006101000a81548173ffffffffffffffffffffffffffffffffffffffff021916908373ffffffffffffffffffffffffffffffffffffffff160217905550808273ffffffffffffffffffffffffffffffffffffffff16600073ffffffffffffffffffffffffffffffffffffffff167fddf252ad1be2c89b69c2b068fc378daa952ba7f163c4a11628f55a4df523b3ef60405160405180910390a4613abf6000838361305c565b5050565b508054613acf90614ea7565b6000825580601f10613ae15750613b00565b601f016020900490600052602060002090810190613aff9190613b89565b5b50565b828054613b0f90614ea7565b90600052602060002090601f016020900481019282613b315760008555613b78565b82601f10613b4a57805160ff1916838001178555613b78565b82800160010185558215613b78579182015b82811115613b77578251825591602001919060010190613b5c565b5b509050613b859190613b89565b5090565b5b80821115613ba2576000816000905550600101613b8a565b5090565b6000613bb9613bb484614b7d565b614b58565b90508083825260208201905082856020860282011115613bd857600080fd5b60005b85811015613c2257813567ffffffffffffffff811115613bfa57600080fd5b808601613c078982613d50565b85526020850194506020840193505050600181019050613bdb565b5050509392505050565b6000613c3f613c3a84614ba9565b614b58565b905082815260208101848484011115613c5757600080fd5b613c62848285614e65565b509392505050565b6000613c7d613c7884614bda565b614b58565b905082815260208101848484011115613c9557600080fd5b613ca0848285614e65565b509392505050565b600081359050613cb781615779565b92915050565b600082601f830112613cce57600080fd5b8135613cde848260208601613ba6565b91505092915050565b600081359050613cf681615790565b92915050565b600081359050613d0b816157a7565b92915050565b600081519050613d20816157a7565b92915050565b600082601f830112613d3757600080fd5b8135613d47848260208601613c2c565b91505092915050565b600082601f830112613d6157600080fd5b8135613d71848260208601613c6a565b91505092915050565b600081359050613d89816157be565b92915050565b600060208284031215613da157600080fd5b6000613daf84828501613ca8565b91505092915050565b60008060408385031215613dcb57600080fd5b6000613dd985828601613ca8565b9250506020613dea85828601613ca8565b9150509250929050565b600080600060608486031215613e0957600080fd5b6000613e1786828701613ca8565b9350506020613e2886828701613ca8565b9250506040613e3986828701613d7a565b9150509250925092565b60008060008060808587031215613e5957600080fd5b6000613e6787828801613ca8565b9450506020613e7887828801613ca8565b9350506040613e8987828801613d7a565b925050606085013567ffffffffffffffff811115613ea657600080fd5b613eb287828801613d26565b91505092959194509250565b60008060408385031215613ed157600080fd5b6000613edf85828601613ca8565b9250506020613ef085828601613ce7565b9150509250929050565b60008060408385031215613f0d57600080fd5b6000613f1b85828601613ca8565b9250506020613f2c85828601613d7a565b9150509250929050565b600060208284031215613f4857600080fd5b6000613f5684828501613cfc565b91505092915050565b600060208284031215613f7157600080fd5b6000613f7f84828501613d11565b91505092915050565b600060208284031215613f9a57600080fd5b600082013567ffffffffffffffff811115613fb457600080fd5b613fc084828501613d50565b91505092915050565b600060208284031215613fdb57600080fd5b6000613fe984828501613d7a565b91505092915050565b6000806040838503121561400557600080fd5b600061401385828601613d7a565b925050602083013567ffffffffffffffff81111561403057600080fd5b61403c85828601613cbd565b9150509250929050565b6000806040838503121561405957600080fd5b600061406785828601613d7a565b925050602083013567ffffffffffffffff81111561408457600080fd5b61409085828601613d50565b9150509250929050565b60006140a683836141f0565b905092915050565b60006140ba8383614667565b60208301905092915050565b6140cf81614df1565b82525050565b60006140e082614c2b565b6140ea8185614c71565b9350836020820285016140fc85614c0b565b8060005b858110156141385784840389528151614119858261409a565b945061412483614c57565b925060208a01995050600181019050614100565b50829750879550505050505092915050565b600061415582614c36565b61415f8185614c82565b935061416a83614c1b565b8060005b8381101561419b57815161418288826140ae565b975061418d83614c64565b92505060018101905061416e565b5085935050505092915050565b6141b181614e03565b82525050565b60006141c282614c41565b6141cc8185614c93565b93506141dc818560208601614e74565b6141e581615040565b840191505092915050565b60006141fb82614c4c565b6142058185614caf565b9350614215818560208601614e74565b61421e81615040565b840191505092915050565b600061423482614c4c565b61423e8185614cc0565b935061424e818560208601614e74565b61425781615040565b840191505092915050565b600061426d82614c4c565b6142778185614cd1565b9350614287818560208601614e74565b80840191505092915050565b60006142a0601183614cc0565b91506142ab82615051565b602082019050919050565b60006142c3601783614cc0565b91506142ce8261507a565b602082019050919050565b60006142e6602b83614cc0565b91506142f1826150a3565b604082019050919050565b6000614309603283614cc0565b9150614314826150f2565b604082019050919050565b600061432c602683614cc0565b915061433782615141565b604082019050919050565b600061434f602583614cc0565b915061435a82615190565b604082019050919050565b6000614372601c83614cc0565b915061437d826151df565b602082019050919050565b6000614395602483614cc0565b91506143a082615208565b604082019050919050565b60006143b8601983614cc0565b91506143c382615257565b602082019050919050565b60006143db601583614cc0565b91506143e682615280565b602082019050919050565b60006143fe602c83614cc0565b9150614409826152a9565b604082019050919050565b6000614421603883614cc0565b915061442c826152f8565b604082019050919050565b6000614444602a83614cc0565b915061444f82615347565b604082019050919050565b6000614467602983614cc0565b915061447282615396565b604082019050919050565b600061448a602e83614cc0565b9150614495826153e5565b604082019050919050565b60006144ad602083614cc0565b91506144b882615434565b602082019050919050565b60006144d0601983614cc0565b91506144db8261545d565b602082019050919050565b60006144f3603183614cc0565b91506144fe82615486565b604082019050919050565b6000614516602c83614cc0565b9150614521826154d5565b604082019050919050565b6000614539602083614cc0565b915061454482615524565b602082019050919050565b600061455c602f83614cc0565b91506145678261554d565b604082019050919050565b600061457f602183614cc0565b915061458a8261559c565b604082019050919050565b60006145a2600083614ca4565b91506145ad826155eb565b600082019050919050565b60006145c5601083614cc0565b91506145d0826155ee565b602082019050919050565b60006145e8603183614cc0565b91506145f382615617565b604082019050919050565b600061460b602c83614cc0565b915061461682615666565b604082019050919050565b600061462e602383614cc0565b9150614639826156b5565b604082019050919050565b6000614651604983614cc0565b915061465c82615704565b606082019050919050565b61467081614e5b565b82525050565b61467f81614e5b565b82525050565b60006146918285614262565b915061469d8284614262565b91508190509392505050565b60006146b482614595565b9150819050919050565b60006020820190506146d360008301846140c6565b92915050565b60006060820190506146ee60008301866140c6565b6146fb60208301856140c6565b6147086040830184614676565b949350505050565b600060808201905061472560008301876140c6565b61473260208301866140c6565b61473f6040830185614676565b818103606083015261475181846141b7565b905095945050505050565b6000602082019050818103600083015261477681846140d5565b905092915050565b60006020820190508181036000830152614798818461414a565b905092915050565b60006020820190506147b560008301846141a8565b92915050565b600060208201905081810360008301526147d58184614229565b905092915050565b600060208201905081810360008301526147f681614293565b9050919050565b60006020820190508181036000830152614816816142b6565b9050919050565b60006020820190508181036000830152614836816142d9565b9050919050565b60006020820190508181036000830152614856816142fc565b9050919050565b600060208201905081810360008301526148768161431f565b9050919050565b6000602082019050818103600083015261489681614342565b9050919050565b600060208201905081810360008301526148b681614365565b9050919050565b600060208201905081810360008301526148d681614388565b9050919050565b600060208201905081810360008301526148f6816143ab565b9050919050565b60006020820190508181036000830152614916816143ce565b9050919050565b60006020820190508181036000830152614936816143f1565b9050919050565b6000602082019050818103600083015261495681614414565b9050919050565b6000602082019050818103600083015261497681614437565b9050919050565b600060208201905081810360008301526149968161445a565b9050919050565b600060208201905081810360008301526149b68161447d565b9050919050565b600060208201905081810360008301526149d6816144a0565b9050919050565b600060208201905081810360008301526149f6816144c3565b9050919050565b60006020820190508181036000830152614a16816144e6565b9050919050565b60006020820190508181036000830152614a3681614509565b9050919050565b60006020820190508181036000830152614a568161452c565b9050919050565b60006020820190508181036000830152614a768161454f565b9050919050565b60006020820190508181036000830152614a9681614572565b9050919050565b60006020820190508181036000830152614ab6816145b8565b9050919050565b60006020820190508181036000830152614ad6816145db565b9050919050565b60006020820190508181036000830152614af6816145fe565b9050919050565b60006020820190508181036000830152614b1681614621565b9050919050565b60006020820190508181036000830152614b3681614644565b9050919050565b6000602082019050614b526000830184614676565b92915050565b6000614b62614b73565b9050614b6e8282614ed9565b919050565b6000604051905090565b600067ffffffffffffffff821115614b9857614b97615011565b5b602082029050602081019050919050565b600067ffffffffffffffff821115614bc457614bc3615011565b5b614bcd82615040565b9050602081019050919050565b600067ffffffffffffffff821115614bf557614bf4615011565b5b614bfe82615040565b9050602081019050919050565b6000819050602082019050919050565b6000819050602082019050919050565b600081519050919050565b600081519050919050565b600081519050919050565b600081519050919050565b6000602082019050919050565b6000602082019050919050565b600082825260208201905092915050565b600082825260208201905092915050565b600082825260208201905092915050565b600081905092915050565b600082825260208201905092915050565b600082825260208201905092915050565b600081905092915050565b6000614ce782614e5b565b9150614cf283614e5b565b9250827fffffffffffffffffffffffffffffffffffffffffffffffffffffffffffffffff03821115614d2757614d26614f84565b5b828201905092915050565b6000614d3d82614e5b565b9150614d4883614e5b565b925082614d5857614d57614fb3565b5b828204905092915050565b6000614d6e82614e5b565b9150614d7983614e5b565b9250817fffffffffffffffffffffffffffffffffffffffffffffffffffffffffffffffff0483118215151615614db257614db1614f84565b5b828202905092915050565b6000614dc882614e5b565b9150614dd383614e5b565b925082821015614de657614de5614f84565b5b828203905092915050565b6000614dfc82614e3b565b9050919050565b60008115159050919050565b60007fffffffff0000000000000000000000000000000000000000000000000000000082169050919050565b600073ffffffffffffffffffffffffffffffffffffffff82169050919050565b6000819050919050565b82818337600083830152505050565b60005b83811015614e92578082015181840152602081019050614e77565b83811115614ea1576000848401525b50505050565b60006002820490506001821680614ebf57607f821691505b60208210811415614ed357614ed2614fe2565b5b50919050565b614ee282615040565b810181811067ffffffffffffffff82111715614f0157614f00615011565b5b80604052505050565b6000614f1582614e5b565b91507fffffffffffffffffffffffffffffffffffffffffffffffffffffffffffffffff821415614f4857614f47614f84565b5b600182019050919050565b6000614f5e82614e5b565b9150614f6983614e5b565b925082614f7957614f78614fb3565b5b828206905092915050565b7f4e487b7100000000000000000000000000000000000000000000000000000000600052601160045260246000fd5b7f4e487b7100000000000000000000000000000000000000000000000000000000600052601260045260246000fd5b7f4e487b7100000000000000000000000000000000000000000000000000000000600052602260045260246000fd5b7f4e487b7100000000000000000000000000000000000000000000000000000000600052604160045260246000fd5b6000601f19601f8301169050919050565b7f4e6f7420656e6f75676820657468657221000000000000000000000000000000600082015250565b7f496e76616c696420646f6e617465206164647265737321000000000000000000600082015250565b7f455243373231456e756d657261626c653a206f776e657220696e646578206f7560008201527f74206f6620626f756e6473000000000000000000000000000000000000000000602082015250565b7f4552433732313a207472616e7366657220746f206e6f6e20455243373231526560008201527f63656976657220696d706c656d656e7465720000000000000000000000000000602082015250565b7f4f776e61626c653a206e6577206f776e657220697320746865207a65726f206160008201527f6464726573730000000000000000000000000000000000000000000000000000602082015250565b7f4552433732313a207472616e736665722066726f6d20696e636f72726563742060008201527f6f776e6572000000000000000000000000000000000000000000000000000000602082015250565b7f4552433732313a20746f6b656e20616c7265616479206d696e74656400000000600082015250565b7f4552433732313a207472616e7366657220746f20746865207a65726f2061646460008201527f7265737300000000000000000000000000000000000000000000000000000000602082015250565b7f4552433732313a20617070726f766520746f2063616c6c657200000000000000600082015250565b7f4e6f7420656e6f756768204e465473206c656674210000000000000000000000600082015250565b7f4552433732313a206f70657261746f7220717565727920666f72206e6f6e657860008201527f697374656e7420746f6b656e0000000000000000000000000000000000000000602082015250565b7f4552433732313a20617070726f76652063616c6c6572206973206e6f74206f7760008201527f6e6572206e6f7220617070726f76656420666f7220616c6c0000000000000000602082015250565b7f4552433732313a2062616c616e636520717565727920666f7220746865207a6560008201527f726f206164647265737300000000000000000000000000000000000000000000602082015250565b7f4552433732313a206f776e657220717565727920666f72206e6f6e657869737460008201527f656e7420746f6b656e0000000000000000000000000000000000000000000000602082015250565b7f45524337323155524953746f726167653a2055524920736574206f66206e6f6e60008201527f6578697374656e7420746f6b656e000000000000000000000000000000000000602082015250565b7f4552433732313a206d696e7420746f20746865207a65726f2061646472657373600082015250565b7f4e6f206574686572206c65667420746f20776974686472617700000000000000600082015250565b7f45524337323155524953746f726167653a2055524920717565727920666f722060008201527f6e6f6e6578697374656e7420746f6b656e000000000000000000000000000000602082015250565b7f4552433732313a20617070726f76656420717565727920666f72206e6f6e657860008201527f697374656e7420746f6b656e0000000000000000000000000000000000000000602082015250565b7f4f776e61626c653a2063616c6c6572206973206e6f7420746865206f776e6572600082015250565b7f4552433732314d657461646174613a2055524920717565727920666f72206e6f60008201527f6e6578697374656e7420746f6b656e0000000000000000000000000000000000602082015250565b7f4552433732313a20617070726f76616c20746f2063757272656e74206f776e6560008201527f7200000000000000000000000000000000000000000000000000000000000000602082015250565b50565b7f5472616e73666572206661696c65642e00000000000000000000000000000000600082015250565b7f4552433732313a207472616e736665722063616c6c6572206973206e6f74206f60008201527f776e6572206e6f7220617070726f766564000000000000000000000000000000602082015250565b7f455243373231456e756d657261626c653a20676c6f62616c20696e646578206f60008201527f7574206f6620626f756e64730000000000000000000000000000000000000000602082015250565b7f4e6f20657869737420636f6c6c656374696f6e20666f72207468697320696e6460008201527f6578210000000000000000000000000000000000000000000000000000000000602082015250565b7f43616e6e6f74206d696e7420737065636966696564206e756d626572206f662060008201527f4e4654732e20596f752063616e206d696e74206174206d6f7374203130204e4660208201527f54206174206f6e63650000000000000000000000000000000000000000000000604082015250565b61578281614df1565b811461578d57600080fd5b50565b61579981614e03565b81146157a457600080fd5b50565b6157b081614e0f565b81146157bb57600080fd5b50565b6157c781614e5b565b81146157d257600080fd5b5056fea264697066735822122034b3a409462805f1e5ace810fc4759b0b824827f77784b20a899724d17f4fc3c64736f6c63430008040033",
  "linkReferences": {},
  "deployedLinkReferences": {}
}