{
  "_format": "hh-sol-artifact-1",
  "contractName": "PEACE2UKRAINE",
  "sourceName": "contracts/Peace2Ukraine.sol",
  "abi": [
    {
      "inputs": [
        {
          "internalType": "string",
          "name": "baseURI",
          "type": "string"
        }
      ],
      "stateMutability": "nonpayable",
      "type": "constructor"
    },
    {
      "anonymous": false,
      "inputs": [
        {
          "indexed": true,
          "internalType": "address",
          "name": "owner",
          "type": "address"
        },
        {
          "indexed": true,
          "internalType": "address",
          "name": "approved",
          "type": "address"
        },
        {
          "indexed": true,
          "internalType": "uint256",
          "name": "tokenId",
          "type": "uint256"
        }
      ],
      "name": "Approval",
      "type": "event"
    },
    {
      "anonymous": false,
      "inputs": [
        {
          "indexed": true,
          "internalType": "address",
          "name": "owner",
          "type": "address"
        },
        {
          "indexed": true,
          "internalType": "address",
          "name": "operator",
          "type": "address"
        },
        {
          "indexed": false,
          "internalType": "bool",
          "name": "approved",
          "type": "bool"
        }
      ],
      "name": "ApprovalForAll",
      "type": "event"
    },
    {
      "anonymous": false,
      "inputs": [
        {
          "indexed": true,
          "internalType": "address",
          "name": "previousOwner",
          "type": "address"
        },
        {
          "indexed": true,
          "internalType": "address",
          "name": "newOwner",
          "type": "address"
        }
      ],
      "name": "OwnershipTransferred",
      "type": "event"
    },
    {
      "anonymous": false,
      "inputs": [
        {
          "indexed": true,
          "internalType": "address",
          "name": "from",
          "type": "address"
        },
        {
          "indexed": true,
          "internalType": "address",
          "name": "to",
          "type": "address"
        },
        {
          "indexed": true,
          "internalType": "uint256",
          "name": "tokenId",
          "type": "uint256"
        }
      ],
      "name": "Transfer",
      "type": "event"
    },
    {
      "inputs": [],
      "name": "MAX_PER_MINT",
      "outputs": [
        {
          "internalType": "uint256",
          "name": "",
          "type": "uint256"
        }
      ],
      "stateMutability": "view",
      "type": "function"
    },
    {
      "inputs": [],
      "name": "MAX_SUPPLY",
      "outputs": [
        {
          "internalType": "uint256",
          "name": "",
          "type": "uint256"
        }
      ],
      "stateMutability": "view",
      "type": "function"
    },
    {
      "inputs": [],
      "name": "PRICE",
      "outputs": [
        {
          "internalType": "uint256",
          "name": "",
          "type": "uint256"
        }
      ],
      "stateMutability": "view",
      "type": "function"
    },
    {
      "inputs": [],
      "name": "_lastTokenID",
      "outputs": [
        {
          "internalType": "uint256",
          "name": "",
          "type": "uint256"
        }
      ],
      "stateMutability": "view",
      "type": "function"
    },
    {
      "inputs": [
        {
          "internalType": "address",
          "name": "to",
          "type": "address"
        },
        {
          "internalType": "uint256",
          "name": "tokenId",
          "type": "uint256"
        }
      ],
      "name": "approve",
      "outputs": [],
      "stateMutability": "nonpayable",
      "type": "function"
    },
    {
      "inputs": [
        {
          "internalType": "address",
          "name": "owner",
          "type": "address"
        }
      ],
      "name": "balanceOf",
      "outputs": [
        {
          "internalType": "uint256",
          "name": "",
          "type": "uint256"
        }
      ],
      "stateMutability": "view",
      "type": "function"
    },
    {
      "inputs": [],
      "name": "baseTokenURI",
      "outputs": [
        {
          "internalType": "string",
          "name": "",
          "type": "string"
        }
      ],
      "stateMutability": "view",
      "type": "function"
    },
    {
      "inputs": [],
      "name": "donateRate",
      "outputs": [
        {
          "internalType": "uint256",
          "name": "",
          "type": "uint256"
        }
      ],
      "stateMutability": "view",
      "type": "function"
    },
    {
      "inputs": [
        {
          "internalType": "uint256",
          "name": "tokenId",
          "type": "uint256"
        }
      ],
      "name": "getApproved",
      "outputs": [
        {
          "internalType": "address",
          "name": "",
          "type": "address"
        }
      ],
      "stateMutability": "view",
      "type": "function"
    },
    {
      "inputs": [
        {
          "internalType": "address",
          "name": "owner",
          "type": "address"
        },
        {
          "internalType": "address",
          "name": "operator",
          "type": "address"
        }
      ],
      "name": "isApprovedForAll",
      "outputs": [
        {
          "internalType": "bool",
          "name": "",
          "type": "bool"
        }
      ],
      "stateMutability": "view",
      "type": "function"
    },
    {
      "inputs": [
        {
          "internalType": "uint256",
          "name": "_count",
          "type": "uint256"
        },
        {
          "internalType": "string",
          "name": "_baseTokenURI",
          "type": "string"
        }
      ],
      "name": "mintNFTs",
      "outputs": [],
      "stateMutability": "nonpayable",
      "type": "function"
    },
    {
      "inputs": [
        {
          "internalType": "string",
          "name": "_baseTokenURI",
          "type": "string"
        }
      ],
      "name": "mintSingleNFT",
      "outputs": [],
      "stateMutability": "nonpayable",
      "type": "function"
    },
    {
      "inputs": [],
      "name": "name",
      "outputs": [
        {
          "internalType": "string",
          "name": "",
          "type": "string"
        }
      ],
      "stateMutability": "view",
      "type": "function"
    },
    {
      "inputs": [],
      "name": "owner",
      "outputs": [
        {
          "internalType": "address",
          "name": "",
          "type": "address"
        }
      ],
      "stateMutability": "view",
      "type": "function"
    },
    {
      "inputs": [
        {
          "internalType": "uint256",
          "name": "tokenId",
          "type": "uint256"
        }
      ],
      "name": "ownerOf",
      "outputs": [
        {
          "internalType": "address",
          "name": "",
          "type": "address"
        }
      ],
      "stateMutability": "view",
      "type": "function"
    },
    {
      "inputs": [],
      "name": "renounceOwnership",
      "outputs": [],
      "stateMutability": "nonpayable",
      "type": "function"
    },
    {
      "inputs": [],
      "name": "reserveNFTs",
      "outputs": [],
      "stateMutability": "nonpayable",
      "type": "function"
    },
    {
      "inputs": [
        {
          "internalType": "address",
          "name": "from",
          "type": "address"
        },
        {
          "internalType": "address",
          "name": "to",
          "type": "address"
        },
        {
          "internalType": "uint256",
          "name": "tokenId",
          "type": "uint256"
        }
      ],
      "name": "safeTransferFrom",
      "outputs": [],
      "stateMutability": "nonpayable",
      "type": "function"
    },
    {
      "inputs": [
        {
          "internalType": "address",
          "name": "from",
          "type": "address"
        },
        {
          "internalType": "address",
          "name": "to",
          "type": "address"
        },
        {
          "internalType": "uint256",
          "name": "tokenId",
          "type": "uint256"
        },
        {
          "internalType": "bytes",
          "name": "_data",
          "type": "bytes"
        }
      ],
      "name": "safeTransferFrom",
      "outputs": [],
      "stateMutability": "nonpayable",
      "type": "function"
    },
    {
      "inputs": [
        {
          "internalType": "address",
          "name": "operator",
          "type": "address"
        },
        {
          "internalType": "bool",
          "name": "approved",
          "type": "bool"
        }
      ],
      "name": "setApprovalForAll",
      "outputs": [],
      "stateMutability": "nonpayable",
      "type": "function"
    },
    {
      "inputs": [
        {
          "internalType": "string",
          "name": "_baseTokenURI",
          "type": "string"
        }
      ],
      "name": "setBaseURI",
      "outputs": [],
      "stateMutability": "nonpayable",
      "type": "function"
    },
    {
      "inputs": [
        {
          "internalType": "uint256",
          "name": "_rate",
          "type": "uint256"
        }
      ],
      "name": "setDonateRate",
      "outputs": [],
      "stateMutability": "nonpayable",
      "type": "function"
    },
    {
      "inputs": [
        {
          "internalType": "bytes4",
          "name": "interfaceId",
          "type": "bytes4"
        }
      ],
      "name": "supportsInterface",
      "outputs": [
        {
          "internalType": "bool",
          "name": "",
          "type": "bool"
        }
      ],
      "stateMutability": "view",
      "type": "function"
    },
    {
      "inputs": [],
      "name": "symbol",
      "outputs": [
        {
          "internalType": "string",
          "name": "",
          "type": "string"
        }
      ],
      "stateMutability": "view",
      "type": "function"
    },
    {
      "inputs": [
        {
          "internalType": "uint256",
          "name": "index",
          "type": "uint256"
        }
      ],
      "name": "tokenByIndex",
      "outputs": [
        {
          "internalType": "uint256",
          "name": "",
          "type": "uint256"
        }
      ],
      "stateMutability": "view",
      "type": "function"
    },
    {
      "inputs": [
        {
          "internalType": "address",
          "name": "owner",
          "type": "address"
        },
        {
          "internalType": "uint256",
          "name": "index",
          "type": "uint256"
        }
      ],
      "name": "tokenOfOwnerByIndex",
      "outputs": [
        {
          "internalType": "uint256",
          "name": "",
          "type": "uint256"
        }
      ],
      "stateMutability": "view",
      "type": "function"
    },
    {
      "inputs": [
        {
          "internalType": "uint256",
          "name": "tokenId",
          "type": "uint256"
        }
      ],
      "name": "tokenURI",
      "outputs": [
        {
          "internalType": "string",
          "name": "",
          "type": "string"
        }
      ],
      "stateMutability": "view",
      "type": "function"
    },
    {
      "inputs": [
        {
          "internalType": "address",
          "name": "_owner",
          "type": "address"
        }
      ],
      "name": "tokensOfOwner",
      "outputs": [
        {
          "internalType": "uint256[]",
          "name": "",
          "type": "uint256[]"
        }
      ],
      "stateMutability": "view",
      "type": "function"
    },
    {
      "inputs": [],
      "name": "totalSupply",
      "outputs": [
        {
          "internalType": "uint256",
          "name": "",
          "type": "uint256"
        }
      ],
      "stateMutability": "view",
      "type": "function"
    },
    {
      "inputs": [
        {
          "internalType": "address",
          "name": "from",
          "type": "address"
        },
        {
          "internalType": "address",
          "name": "to",
          "type": "address"
        },
        {
          "internalType": "uint256",
          "name": "tokenId",
          "type": "uint256"
        }
      ],
      "name": "transferFrom",
      "outputs": [],
      "stateMutability": "nonpayable",
      "type": "function"
    },
    {
      "inputs": [
        {
          "internalType": "address",
          "name": "newOwner",
          "type": "address"
        }
      ],
      "name": "transferOwnership",
      "outputs": [],
      "stateMutability": "nonpayable",
      "type": "function"
    },
    {
      "inputs": [],
      "name": "withdraw",
      "outputs": [],
      "stateMutability": "payable",
      "type": "function"
    }
  ],
  "bytecode": "0x60806040526014600d553480156200001657600080fd5b5060405162004a3038038062004a3083398181016040528101906200003c9190620003d9565b6040518060400160405280600f81526020017f5065616365203220556b7261696e6500000000000000000000000000000000008152506040518060400160405280600d81526020017f504541434532554b5241494e45000000000000000000000000000000000000008152508160009080519060200190620000c0929190620002b7565b508060019080519060200190620000d9929190620002b7565b505050620000fc620000f06200011460201b60201c565b6200011c60201b60201c565b6200010d81620001e260201b60201c565b5062000611565b600033905090565b6000600a60009054906101000a900473ffffffffffffffffffffffffffffffffffffffff16905081600a60006101000a81548173ffffffffffffffffffffffffffffffffffffffff021916908373ffffffffffffffffffffffffffffffffffffffff1602179055508173ffffffffffffffffffffffffffffffffffffffff168173ffffffffffffffffffffffffffffffffffffffff167f8be0079c531659141344cd1fd0a4f28419497f9722a3daafe3b4186f6b6457e060405160405180910390a35050565b620001f26200011460201b60201c565b73ffffffffffffffffffffffffffffffffffffffff16620002186200028d60201b60201c565b73ffffffffffffffffffffffffffffffffffffffff161462000271576040517f08c379a0000000000000000000000000000000000000000000000000000000008152600401620002689062000445565b60405180910390fd5b80600c908051906020019062000289929190620002b7565b5050565b6000600a60009054906101000a900473ffffffffffffffffffffffffffffffffffffffff16905090565b828054620002c5906200050d565b90600052602060002090601f016020900481019282620002e9576000855562000335565b82601f106200030457805160ff191683800117855562000335565b8280016001018555821562000335579182015b828111156200033457825182559160200191906001019062000317565b5b50905062000344919062000348565b5090565b5b808211156200036357600081600090555060010162000349565b5090565b60006200037e620003788462000490565b62000467565b9050828152602081018484840111156200039757600080fd5b620003a4848285620004d7565b509392505050565b600082601f830112620003be57600080fd5b8151620003d084826020860162000367565b91505092915050565b600060208284031215620003ec57600080fd5b600082015167ffffffffffffffff8111156200040757600080fd5b6200041584828501620003ac565b91505092915050565b60006200042d602083620004c6565b91506200043a82620005e8565b602082019050919050565b6000602082019050818103600083015262000460816200041e565b9050919050565b60006200047362000486565b905062000481828262000543565b919050565b6000604051905090565b600067ffffffffffffffff821115620004ae57620004ad620005a8565b5b620004b982620005d7565b9050602081019050919050565b600082825260208201905092915050565b60005b83811015620004f7578082015181840152602081019050620004da565b8381111562000507576000848401525b50505050565b600060028204905060018216806200052657607f821691505b602082108114156200053d576200053c62000579565b5b50919050565b6200054e82620005d7565b810181811067ffffffffffffffff8211171562000570576200056f620005a8565b5b80604052505050565b7f4e487b7100000000000000000000000000000000000000000000000000000000600052602260045260246000fd5b7f4e487b7100000000000000000000000000000000000000000000000000000000600052604160045260246000fd5b6000601f19601f8301169050919050565b7f4f776e61626c653a2063616c6c6572206973206e6f7420746865206f776e6572600082015250565b61440f80620006216000396000f3fe6080604052600436106101e35760003560e01c806365f07eea11610102578063a22cb46511610095578063e939427c11610064578063e939427c146106d3578063e985e9c5146106fe578063f2fde38b1461073b578063fc1dfc4214610764576101e3565b8063a22cb46514610619578063b88d4fde14610642578063c87b56dd1461066b578063d547cfb7146106a8576101e3565b80638462151c116100d15780638462151c1461055b5780638d859f3e146105985780638da5cb5b146105c357806395d89b41146105ee576101e3565b806365f07eea146104b357806370a08231146104de578063715018a61461051b5780638281754d14610532576101e3565b806323b872dd1161017a57806342842e0e1161014957806342842e0e146103e75780634f6ccce71461041057806355f804b31461044d5780636352211e14610476576101e3565b806323b872dd1461034c5780632f745c591461037557806332cb6b0c146103b25780633ccfd60b146103dd576101e3565b806309d42b30116101b657806309d42b30146102b6578063144100c7146102e157806318160ddd146102f857806322b5dabd14610323576101e3565b806301ffc9a7146101e857806306fdde0314610225578063081812fc14610250578063095ea7b31461028d575b600080fd5b3480156101f457600080fd5b5061020f600480360381019061020a9190612f9b565b61078d565b60405161021c919061360a565b60405180910390f35b34801561023157600080fd5b5061023a610807565b6040516102479190613625565b60405180910390f35b34801561025c57600080fd5b506102776004803603810190610272919061302e565b610899565b6040516102849190613581565b60405180910390f35b34801561029957600080fd5b506102b460048036038101906102af9190612f5f565b61091e565b005b3480156102c257600080fd5b506102cb610a36565b6040516102d89190613927565b60405180910390f35b3480156102ed57600080fd5b506102f6610a3b565b005b34801561030457600080fd5b5061030d610b47565b60405161031a9190613927565b60405180910390f35b34801561032f57600080fd5b5061034a60048036038101906103459190612fed565b610b54565b005b34801561035857600080fd5b50610373600480360381019061036e9190612e59565b610c4b565b005b34801561038157600080fd5b5061039c60048036038101906103979190612f5f565b610cab565b6040516103a99190613927565b60405180910390f35b3480156103be57600080fd5b506103c7610d50565b6040516103d49190613927565b60405180910390f35b6103e5610d56565b005b3480156103f357600080fd5b5061040e60048036038101906104099190612e59565b610eca565b005b34801561041c57600080fd5b506104376004803603810190610432919061302e565b610eea565b6040516104449190613927565b60405180910390f35b34801561045957600080fd5b50610474600480360381019061046f9190612fed565b610f81565b005b34801561048257600080fd5b5061049d6004803603810190610498919061302e565b611017565b6040516104aa9190613581565b60405180910390f35b3480156104bf57600080fd5b506104c86110c9565b6040516104d59190613927565b60405180910390f35b3480156104ea57600080fd5b5061050560048036038101906105009190612df4565b6110cf565b6040516105129190613927565b60405180910390f35b34801561052757600080fd5b50610530611187565b005b34801561053e57600080fd5b5061055960048036038101906105549190613057565b61120f565b005b34801561056757600080fd5b50610582600480360381019061057d9190612df4565b611375565b60405161058f91906135e8565b60405180910390f35b3480156105a457600080fd5b506105ad61146f565b6040516105ba9190613927565b60405180910390f35b3480156105cf57600080fd5b506105d8611479565b6040516105e59190613581565b60405180910390f35b3480156105fa57600080fd5b506106036114a3565b6040516106109190613625565b60405180910390f35b34801561062557600080fd5b50610640600480360381019061063b9190612f23565b611535565b005b34801561064e57600080fd5b5061066960048036038101906106649190612ea8565b61154b565b005b34801561067757600080fd5b50610692600480360381019061068d919061302e565b6115ad565b60405161069f9190613625565b60405180910390f35b3480156106b457600080fd5b506106bd611654565b6040516106ca9190613625565b60405180910390f35b3480156106df57600080fd5b506106e86116e2565b6040516106f59190613927565b60405180910390f35b34801561070a57600080fd5b5061072560048036038101906107209190612e1d565b6116f3565b604051610732919061360a565b60405180910390f35b34801561074757600080fd5b50610762600480360381019061075d9190612df4565b611787565b005b34801561077057600080fd5b5061078b6004803603810190610786919061302e565b61187f565b005b60007f780e9d63000000000000000000000000000000000000000000000000000000007bffffffffffffffffffffffffffffffffffffffffffffffffffffffff1916827bffffffffffffffffffffffffffffffffffffffffffffffffffffffff1916148061080057506107ff82611905565b5b9050919050565b60606000805461081690613bc1565b80601f016020809104026020016040519081016040528092919081815260200182805461084290613bc1565b801561088f5780601f106108645761010080835404028352916020019161088f565b820191906000526020600020905b81548152906001019060200180831161087257829003601f168201915b5050505050905090565b60006108a4826119e7565b6108e3576040517f08c379a00000000000000000000000000000000000000000000000000000000081526004016108da90613827565b60405180910390fd5b6004600083815260200190815260200160002060009054906101000a900473ffffffffffffffffffffffffffffffffffffffff169050919050565b600061092982611017565b90508073ffffffffffffffffffffffffffffffffffffffff168373ffffffffffffffffffffffffffffffffffffffff16141561099a576040517f08c379a000000000000000000000000000000000000000000000000000000000815260040161099190613887565b60405180910390fd5b8073ffffffffffffffffffffffffffffffffffffffff166109b9611a53565b73ffffffffffffffffffffffffffffffffffffffff1614806109e857506109e7816109e2611a53565b6116f3565b5b610a27576040517f08c379a0000000000000000000000000000000000000000000000000000000008152600401610a1e90613787565b60405180910390fd5b610a318383611a5b565b505050565b600a81565b610a43611a53565b73ffffffffffffffffffffffffffffffffffffffff16610a61611479565b73ffffffffffffffffffffffffffffffffffffffff1614610ab7576040517f08c379a0000000000000000000000000000000000000000000000000000000008152600401610aae90613847565b60405180910390fd5b6000610ac3600b611b14565b90506103e8610adc600a83611b2290919063ffffffff16565b10610b1c576040517f08c379a0000000000000000000000000000000000000000000000000000000008152600401610b1390613647565b60405180910390fd5b60005b600a811015610b4357610b30611b38565b8080610b3b90613c24565b915050610b1f565b5050565b6000600880549050905090565b610b5c611a53565b73ffffffffffffffffffffffffffffffffffffffff16610b7a611479565b73ffffffffffffffffffffffffffffffffffffffff1614610bd0576040517f08c379a0000000000000000000000000000000000000000000000000000000008152600401610bc790613847565b60405180910390fd5b6000610bdc600b611b14565b90506103e8610bf5600183611b2290919063ffffffff16565b1115610c36576040517f08c379a0000000000000000000000000000000000000000000000000000000008152600401610c2d90613747565b60405180910390fd5b610c3e611b38565b610c4782610f81565b5050565b610c5c610c56611a53565b82611b5d565b610c9b576040517f08c379a0000000000000000000000000000000000000000000000000000000008152600401610c92906138c7565b60405180910390fd5b610ca6838383611c3b565b505050565b6000610cb6836110cf565b8210610cf7576040517f08c379a0000000000000000000000000000000000000000000000000000000008152600401610cee90613667565b60405180910390fd5b600660008473ffffffffffffffffffffffffffffffffffffffff1673ffffffffffffffffffffffffffffffffffffffff168152602001908152602001600020600083815260200190815260200160002054905092915050565b6103e881565b610d5e611a53565b73ffffffffffffffffffffffffffffffffffffffff16610d7c611479565b73ffffffffffffffffffffffffffffffffffffffff1614610dd2576040517f08c379a0000000000000000000000000000000000000000000000000000000008152600401610dc990613847565b60405180910390fd5b600047905060008111610e1a576040517f08c379a0000000000000000000000000000000000000000000000000000000008152600401610e1190613807565b60405180910390fd5b60003373ffffffffffffffffffffffffffffffffffffffff1682604051610e409061356c565b60006040518083038185875af1925050503d8060008114610e7d576040519150601f19603f3d011682016040523d82523d6000602084013e610e82565b606091505b5050905080610ec6576040517f08c379a0000000000000000000000000000000000000000000000000000000008152600401610ebd906138a7565b60405180910390fd5b5050565b610ee58383836040518060200160405280600081525061154b565b505050565b6000610ef4610b47565b8210610f35576040517f08c379a0000000000000000000000000000000000000000000000000000000008152600401610f2c906138e7565b60405180910390fd5b60088281548110610f6f577f4e487b7100000000000000000000000000000000000000000000000000000000600052603260045260246000fd5b90600052602060002001549050919050565b610f89611a53565b73ffffffffffffffffffffffffffffffffffffffff16610fa7611479565b73ffffffffffffffffffffffffffffffffffffffff1614610ffd576040517f08c379a0000000000000000000000000000000000000000000000000000000008152600401610ff490613847565b60405180910390fd5b80600c9080519060200190611013929190612c18565b5050565b6000806002600084815260200190815260200160002060009054906101000a900473ffffffffffffffffffffffffffffffffffffffff169050600073ffffffffffffffffffffffffffffffffffffffff168173ffffffffffffffffffffffffffffffffffffffff1614156110c0576040517f08c379a00000000000000000000000000000000000000000000000000000000081526004016110b7906137c7565b60405180910390fd5b80915050919050565b600d5481565b60008073ffffffffffffffffffffffffffffffffffffffff168273ffffffffffffffffffffffffffffffffffffffff161415611140576040517f08c379a0000000000000000000000000000000000000000000000000000000008152600401611137906137a7565b60405180910390fd5b600360008373ffffffffffffffffffffffffffffffffffffffff1673ffffffffffffffffffffffffffffffffffffffff168152602001908152602001600020549050919050565b61118f611a53565b73ffffffffffffffffffffffffffffffffffffffff166111ad611479565b73ffffffffffffffffffffffffffffffffffffffff1614611203576040517f08c379a00000000000000000000000000000000000000000000000000000000081526004016111fa90613847565b60405180910390fd5b61120d6000611ea2565b565b611217611a53565b73ffffffffffffffffffffffffffffffffffffffff16611235611479565b73ffffffffffffffffffffffffffffffffffffffff161461128b576040517f08c379a000000000000000000000000000000000000000000000000000000000815260040161128290613847565b60405180910390fd5b6000611297600b611b14565b90506103e86112af8483611b2290919063ffffffff16565b11156112f0576040517f08c379a00000000000000000000000000000000000000000000000000000000081526004016112e790613747565b60405180910390fd5b6000831180156113015750600a8311155b611340576040517f08c379a000000000000000000000000000000000000000000000000000000000815260040161133790613907565b60405180910390fd5b60005b8381101561136657611353611b38565b808061135e90613c24565b915050611343565b5061137082610f81565b505050565b60606000611382836110cf565b905060008167ffffffffffffffff8111156113c6577f4e487b7100000000000000000000000000000000000000000000000000000000600052604160045260246000fd5b6040519080825280602002602001820160405280156113f45781602001602082028036833780820191505090505b50905060005b828110156114645761140c8582610cab565b828281518110611445577f4e487b7100000000000000000000000000000000000000000000000000000000600052603260045260246000fd5b602002602001018181525050808061145c90613c24565b9150506113fa565b508092505050919050565b655af3107a400081565b6000600a60009054906101000a900473ffffffffffffffffffffffffffffffffffffffff16905090565b6060600180546114b290613bc1565b80601f01602080910402602001604051908101604052809291908181526020018280546114de90613bc1565b801561152b5780601f106115005761010080835404028352916020019161152b565b820191906000526020600020905b81548152906001019060200180831161150e57829003601f168201915b5050505050905090565b611547611540611a53565b8383611f68565b5050565b61155c611556611a53565b83611b5d565b61159b576040517f08c379a0000000000000000000000000000000000000000000000000000000008152600401611592906138c7565b60405180910390fd5b6115a7848484846120d5565b50505050565b60606115b8826119e7565b6115f7576040517f08c379a00000000000000000000000000000000000000000000000000000000081526004016115ee90613867565b60405180910390fd5b6000611601612131565b90506000815111611621576040518060200160405280600081525061164c565b8061162b84612148565b60405160200161163c929190613548565b6040516020818303038152906040525b915050919050565b600c805461166190613bc1565b80601f016020809104026020016040519081016040528092919081815260200182805461168d90613bc1565b80156116da5780601f106116af576101008083540402835291602001916116da565b820191906000526020600020905b8154815290600101906020018083116116bd57829003601f168201915b505050505081565b60006116ee600b611b14565b905090565b6000600560008473ffffffffffffffffffffffffffffffffffffffff1673ffffffffffffffffffffffffffffffffffffffff16815260200190815260200160002060008373ffffffffffffffffffffffffffffffffffffffff1673ffffffffffffffffffffffffffffffffffffffff16815260200190815260200160002060009054906101000a900460ff16905092915050565b61178f611a53565b73ffffffffffffffffffffffffffffffffffffffff166117ad611479565b73ffffffffffffffffffffffffffffffffffffffff1614611803576040517f08c379a00000000000000000000000000000000000000000000000000000000081526004016117fa90613847565b60405180910390fd5b600073ffffffffffffffffffffffffffffffffffffffff168173ffffffffffffffffffffffffffffffffffffffff161415611873576040517f08c379a000000000000000000000000000000000000000000000000000000000815260040161186a906136a7565b60405180910390fd5b61187c81611ea2565b50565b611887611a53565b73ffffffffffffffffffffffffffffffffffffffff166118a5611479565b73ffffffffffffffffffffffffffffffffffffffff16146118fb576040517f08c379a00000000000000000000000000000000000000000000000000000000081526004016118f290613847565b60405180910390fd5b80600d8190555050565b60007f80ac58cd000000000000000000000000000000000000000000000000000000007bffffffffffffffffffffffffffffffffffffffffffffffffffffffff1916827bffffffffffffffffffffffffffffffffffffffffffffffffffffffff191614806119d057507f5b5e139f000000000000000000000000000000000000000000000000000000007bffffffffffffffffffffffffffffffffffffffffffffffffffffffff1916827bffffffffffffffffffffffffffffffffffffffffffffffffffffffff1916145b806119e057506119df826122f5565b5b9050919050565b60008073ffffffffffffffffffffffffffffffffffffffff166002600084815260200190815260200160002060009054906101000a900473ffffffffffffffffffffffffffffffffffffffff1673ffffffffffffffffffffffffffffffffffffffff1614159050919050565b600033905090565b816004600083815260200190815260200160002060006101000a81548173ffffffffffffffffffffffffffffffffffffffff021916908373ffffffffffffffffffffffffffffffffffffffff160217905550808273ffffffffffffffffffffffffffffffffffffffff16611ace83611017565b73ffffffffffffffffffffffffffffffffffffffff167f8c5be1e5ebec7d5bd14f71427d1e84f3dd0314c0f7b2291e5b200ac8c7c3b92560405160405180910390a45050565b600081600001549050919050565b60008183611b309190613a50565b905092915050565b6000611b44600b611b14565b9050611b50338261235f565b611b5a600b61237d565b50565b6000611b68826119e7565b611ba7576040517f08c379a0000000000000000000000000000000000000000000000000000000008152600401611b9e90613767565b60405180910390fd5b6000611bb283611017565b90508073ffffffffffffffffffffffffffffffffffffffff168473ffffffffffffffffffffffffffffffffffffffff161480611c2157508373ffffffffffffffffffffffffffffffffffffffff16611c0984610899565b73ffffffffffffffffffffffffffffffffffffffff16145b80611c325750611c3181856116f3565b5b91505092915050565b8273ffffffffffffffffffffffffffffffffffffffff16611c5b82611017565b73ffffffffffffffffffffffffffffffffffffffff1614611cb1576040517f08c379a0000000000000000000000000000000000000000000000000000000008152600401611ca8906136c7565b60405180910390fd5b600073ffffffffffffffffffffffffffffffffffffffff168273ffffffffffffffffffffffffffffffffffffffff161415611d21576040517f08c379a0000000000000000000000000000000000000000000000000000000008152600401611d1890613707565b60405180910390fd5b611d2c838383612393565b611d37600082611a5b565b6001600360008573ffffffffffffffffffffffffffffffffffffffff1673ffffffffffffffffffffffffffffffffffffffff1681526020019081526020016000206000828254611d879190613ad7565b925050819055506001600360008473ffffffffffffffffffffffffffffffffffffffff1673ffffffffffffffffffffffffffffffffffffffff1681526020019081526020016000206000828254611dde9190613a50565b92505081905550816002600083815260200190815260200160002060006101000a81548173ffffffffffffffffffffffffffffffffffffffff021916908373ffffffffffffffffffffffffffffffffffffffff160217905550808273ffffffffffffffffffffffffffffffffffffffff168473ffffffffffffffffffffffffffffffffffffffff167fddf252ad1be2c89b69c2b068fc378daa952ba7f163c4a11628f55a4df523b3ef60405160405180910390a4611e9d8383836124a7565b505050565b6000600a60009054906101000a900473ffffffffffffffffffffffffffffffffffffffff16905081600a60006101000a81548173ffffffffffffffffffffffffffffffffffffffff021916908373ffffffffffffffffffffffffffffffffffffffff1602179055508173ffffffffffffffffffffffffffffffffffffffff168173ffffffffffffffffffffffffffffffffffffffff167f8be0079c531659141344cd1fd0a4f28419497f9722a3daafe3b4186f6b6457e060405160405180910390a35050565b8173ffffffffffffffffffffffffffffffffffffffff168373ffffffffffffffffffffffffffffffffffffffff161415611fd7576040517f08c379a0000000000000000000000000000000000000000000000000000000008152600401611fce90613727565b60405180910390fd5b80600560008573ffffffffffffffffffffffffffffffffffffffff1673ffffffffffffffffffffffffffffffffffffffff16815260200190815260200160002060008473ffffffffffffffffffffffffffffffffffffffff1673ffffffffffffffffffffffffffffffffffffffff16815260200190815260200160002060006101000a81548160ff0219169083151502179055508173ffffffffffffffffffffffffffffffffffffffff168373ffffffffffffffffffffffffffffffffffffffff167f17307eab39ab6107e8899845ad3d59bd9653f200f220920489ca2b5937696c31836040516120c8919061360a565b60405180910390a3505050565b6120e0848484611c3b565b6120ec848484846124ac565b61212b576040517f08c379a000000000000000000000000000000000000000000000000000000000815260040161212290613687565b60405180910390fd5b50505050565b606060405180602001604052806000815250905090565b60606000821415612190576040518060400160405280600181526020017f300000000000000000000000000000000000000000000000000000000000000081525090506122f0565b600082905060005b600082146121c25780806121ab90613c24565b915050600a826121bb9190613aa6565b9150612198565b60008167ffffffffffffffff811115612204577f4e487b7100000000000000000000000000000000000000000000000000000000600052604160045260246000fd5b6040519080825280601f01601f1916602001820160405280156122365781602001600182028036833780820191505090505b5090505b600085146122e95760018261224f9190613ad7565b9150600a8561225e9190613c6d565b603061226a9190613a50565b60f81b8183815181106122a6577f4e487b7100000000000000000000000000000000000000000000000000000000600052603260045260246000fd5b60200101907effffffffffffffffffffffffffffffffffffffffffffffffffffffffffffff1916908160001a905350600a856122e29190613aa6565b945061223a565b8093505050505b919050565b60007f01ffc9a7000000000000000000000000000000000000000000000000000000007bffffffffffffffffffffffffffffffffffffffffffffffffffffffff1916827bffffffffffffffffffffffffffffffffffffffffffffffffffffffff1916149050919050565b612379828260405180602001604052806000815250612643565b5050565b6001816000016000828254019250508190555050565b61239e83838361269e565b600073ffffffffffffffffffffffffffffffffffffffff168373ffffffffffffffffffffffffffffffffffffffff1614156123e1576123dc816126a3565b612420565b8173ffffffffffffffffffffffffffffffffffffffff168373ffffffffffffffffffffffffffffffffffffffff161461241f5761241e83826126ec565b5b5b600073ffffffffffffffffffffffffffffffffffffffff168273ffffffffffffffffffffffffffffffffffffffff1614156124635761245e81612859565b6124a2565b8273ffffffffffffffffffffffffffffffffffffffff168273ffffffffffffffffffffffffffffffffffffffff16146124a1576124a0828261299c565b5b5b505050565b505050565b60006124cd8473ffffffffffffffffffffffffffffffffffffffff16612a1b565b15612636578373ffffffffffffffffffffffffffffffffffffffff1663150b7a026124f6611a53565b8786866040518563ffffffff1660e01b8152600401612518949392919061359c565b602060405180830381600087803b15801561253257600080fd5b505af192505050801561256357506040513d601f19601f820116820180604052508101906125609190612fc4565b60015b6125e6573d8060008114612593576040519150601f19603f3d011682016040523d82523d6000602084013e612598565b606091505b506000815114156125de576040517f08c379a00000000000000000000000000000000000000000000000000000000081526004016125d590613687565b60405180910390fd5b805181602001fd5b63150b7a0260e01b7bffffffffffffffffffffffffffffffffffffffffffffffffffffffff1916817bffffffffffffffffffffffffffffffffffffffffffffffffffffffff19161491505061263b565b600190505b949350505050565b61264d8383612a3e565b61265a60008484846124ac565b612699576040517f08c379a000000000000000000000000000000000000000000000000000000000815260040161269090613687565b60405180910390fd5b505050565b505050565b6008805490506009600083815260200190815260200160002081905550600881908060018154018082558091505060019003906000526020600020016000909190919091505550565b600060016126f9846110cf565b6127039190613ad7565b90506000600760008481526020019081526020016000205490508181146127e8576000600660008673ffffffffffffffffffffffffffffffffffffffff1673ffffffffffffffffffffffffffffffffffffffff168152602001908152602001600020600084815260200190815260200160002054905080600660008773ffffffffffffffffffffffffffffffffffffffff1673ffffffffffffffffffffffffffffffffffffffff168152602001908152602001600020600084815260200190815260200160002081905550816007600083815260200190815260200160002081905550505b6007600084815260200190815260200160002060009055600660008573ffffffffffffffffffffffffffffffffffffffff1673ffffffffffffffffffffffffffffffffffffffff16815260200190815260200160002060008381526020019081526020016000206000905550505050565b6000600160088054905061286d9190613ad7565b90506000600960008481526020019081526020016000205490506000600883815481106128c3577f4e487b7100000000000000000000000000000000000000000000000000000000600052603260045260246000fd5b90600052602060002001549050806008838154811061290b577f4e487b7100000000000000000000000000000000000000000000000000000000600052603260045260246000fd5b906000526020600020018190555081600960008381526020019081526020016000208190555060096000858152602001908152602001600020600090556008805480612980577f4e487b7100000000000000000000000000000000000000000000000000000000600052603160045260246000fd5b6001900381819060005260206000200160009055905550505050565b60006129a7836110cf565b905081600660008573ffffffffffffffffffffffffffffffffffffffff1673ffffffffffffffffffffffffffffffffffffffff168152602001908152602001600020600083815260200190815260200160002081905550806007600084815260200190815260200160002081905550505050565b6000808273ffffffffffffffffffffffffffffffffffffffff163b119050919050565b600073ffffffffffffffffffffffffffffffffffffffff168273ffffffffffffffffffffffffffffffffffffffff161415612aae576040517f08c379a0000000000000000000000000000000000000000000000000000000008152600401612aa5906137e7565b60405180910390fd5b612ab7816119e7565b15612af7576040517f08c379a0000000000000000000000000000000000000000000000000000000008152600401612aee906136e7565b60405180910390fd5b612b0360008383612393565b6001600360008473ffffffffffffffffffffffffffffffffffffffff1673ffffffffffffffffffffffffffffffffffffffff1681526020019081526020016000206000828254612b539190613a50565b92505081905550816002600083815260200190815260200160002060006101000a81548173ffffffffffffffffffffffffffffffffffffffff021916908373ffffffffffffffffffffffffffffffffffffffff160217905550808273ffffffffffffffffffffffffffffffffffffffff16600073ffffffffffffffffffffffffffffffffffffffff167fddf252ad1be2c89b69c2b068fc378daa952ba7f163c4a11628f55a4df523b3ef60405160405180910390a4612c14600083836124a7565b5050565b828054612c2490613bc1565b90600052602060002090601f016020900481019282612c465760008555612c8d565b82601f10612c5f57805160ff1916838001178555612c8d565b82800160010185558215612c8d579182015b82811115612c8c578251825591602001919060010190612c71565b5b509050612c9a9190612c9e565b5090565b5b80821115612cb7576000816000905550600101612c9f565b5090565b6000612cce612cc984613967565b613942565b905082815260208101848484011115612ce657600080fd5b612cf1848285613b7f565b509392505050565b6000612d0c612d0784613998565b613942565b905082815260208101848484011115612d2457600080fd5b612d2f848285613b7f565b509392505050565b600081359050612d468161437d565b92915050565b600081359050612d5b81614394565b92915050565b600081359050612d70816143ab565b92915050565b600081519050612d85816143ab565b92915050565b600082601f830112612d9c57600080fd5b8135612dac848260208601612cbb565b91505092915050565b600082601f830112612dc657600080fd5b8135612dd6848260208601612cf9565b91505092915050565b600081359050612dee816143c2565b92915050565b600060208284031215612e0657600080fd5b6000612e1484828501612d37565b91505092915050565b60008060408385031215612e3057600080fd5b6000612e3e85828601612d37565b9250506020612e4f85828601612d37565b9150509250929050565b600080600060608486031215612e6e57600080fd5b6000612e7c86828701612d37565b9350506020612e8d86828701612d37565b9250506040612e9e86828701612ddf565b9150509250925092565b60008060008060808587031215612ebe57600080fd5b6000612ecc87828801612d37565b9450506020612edd87828801612d37565b9350506040612eee87828801612ddf565b925050606085013567ffffffffffffffff811115612f0b57600080fd5b612f1787828801612d8b565b91505092959194509250565b60008060408385031215612f3657600080fd5b6000612f4485828601612d37565b9250506020612f5585828601612d4c565b9150509250929050565b60008060408385031215612f7257600080fd5b6000612f8085828601612d37565b9250506020612f9185828601612ddf565b9150509250929050565b600060208284031215612fad57600080fd5b6000612fbb84828501612d61565b91505092915050565b600060208284031215612fd657600080fd5b6000612fe484828501612d76565b91505092915050565b600060208284031215612fff57600080fd5b600082013567ffffffffffffffff81111561301957600080fd5b61302584828501612db5565b91505092915050565b60006020828403121561304057600080fd5b600061304e84828501612ddf565b91505092915050565b6000806040838503121561306a57600080fd5b600061307885828601612ddf565b925050602083013567ffffffffffffffff81111561309557600080fd5b6130a185828601612db5565b9150509250929050565b60006130b7838361352a565b60208301905092915050565b6130cc81613b0b565b82525050565b60006130dd826139d9565b6130e78185613a07565b93506130f2836139c9565b8060005b8381101561312357815161310a88826130ab565b9750613115836139fa565b9250506001810190506130f6565b5085935050505092915050565b61313981613b1d565b82525050565b600061314a826139e4565b6131548185613a18565b9350613164818560208601613b8e565b61316d81613d5a565b840191505092915050565b6000613183826139ef565b61318d8185613a34565b935061319d818560208601613b8e565b6131a681613d5a565b840191505092915050565b60006131bc826139ef565b6131c68185613a45565b93506131d6818560208601613b8e565b80840191505092915050565b60006131ef601f83613a34565b91506131fa82613d6b565b602082019050919050565b6000613212602b83613a34565b915061321d82613d94565b604082019050919050565b6000613235603283613a34565b915061324082613de3565b604082019050919050565b6000613258602683613a34565b915061326382613e32565b604082019050919050565b600061327b602583613a34565b915061328682613e81565b604082019050919050565b600061329e601c83613a34565b91506132a982613ed0565b602082019050919050565b60006132c1602483613a34565b91506132cc82613ef9565b604082019050919050565b60006132e4601983613a34565b91506132ef82613f48565b602082019050919050565b6000613307601583613a34565b915061331282613f71565b602082019050919050565b600061332a602c83613a34565b915061333582613f9a565b604082019050919050565b600061334d603883613a34565b915061335882613fe9565b604082019050919050565b6000613370602a83613a34565b915061337b82614038565b604082019050919050565b6000613393602983613a34565b915061339e82614087565b604082019050919050565b60006133b6602083613a34565b91506133c1826140d6565b602082019050919050565b60006133d9601983613a34565b91506133e4826140ff565b602082019050919050565b60006133fc602c83613a34565b915061340782614128565b604082019050919050565b600061341f602083613a34565b915061342a82614177565b602082019050919050565b6000613442602f83613a34565b915061344d826141a0565b604082019050919050565b6000613465602183613a34565b9150613470826141ef565b604082019050919050565b6000613488600083613a29565b91506134938261423e565b600082019050919050565b60006134ab601083613a34565b91506134b682614241565b602082019050919050565b60006134ce603183613a34565b91506134d98261426a565b604082019050919050565b60006134f1602c83613a34565b91506134fc826142b9565b604082019050919050565b6000613514604983613a34565b915061351f82614308565b606082019050919050565b61353381613b75565b82525050565b61354281613b75565b82525050565b600061355482856131b1565b915061356082846131b1565b91508190509392505050565b60006135778261347b565b9150819050919050565b600060208201905061359660008301846130c3565b92915050565b60006080820190506135b160008301876130c3565b6135be60208301866130c3565b6135cb6040830185613539565b81810360608301526135dd818461313f565b905095945050505050565b6000602082019050818103600083015261360281846130d2565b905092915050565b600060208201905061361f6000830184613130565b92915050565b6000602082019050818103600083015261363f8184613178565b905092915050565b60006020820190508181036000830152613660816131e2565b9050919050565b6000602082019050818103600083015261368081613205565b9050919050565b600060208201905081810360008301526136a081613228565b9050919050565b600060208201905081810360008301526136c08161324b565b9050919050565b600060208201905081810360008301526136e08161326e565b9050919050565b6000602082019050818103600083015261370081613291565b9050919050565b60006020820190508181036000830152613720816132b4565b9050919050565b60006020820190508181036000830152613740816132d7565b9050919050565b60006020820190508181036000830152613760816132fa565b9050919050565b600060208201905081810360008301526137808161331d565b9050919050565b600060208201905081810360008301526137a081613340565b9050919050565b600060208201905081810360008301526137c081613363565b9050919050565b600060208201905081810360008301526137e081613386565b9050919050565b60006020820190508181036000830152613800816133a9565b9050919050565b60006020820190508181036000830152613820816133cc565b9050919050565b60006020820190508181036000830152613840816133ef565b9050919050565b6000602082019050818103600083015261386081613412565b9050919050565b6000602082019050818103600083015261388081613435565b9050919050565b600060208201905081810360008301526138a081613458565b9050919050565b600060208201905081810360008301526138c08161349e565b9050919050565b600060208201905081810360008301526138e0816134c1565b9050919050565b60006020820190508181036000830152613900816134e4565b9050919050565b6000602082019050818103600083015261392081613507565b9050919050565b600060208201905061393c6000830184613539565b92915050565b600061394c61395d565b90506139588282613bf3565b919050565b6000604051905090565b600067ffffffffffffffff82111561398257613981613d2b565b5b61398b82613d5a565b9050602081019050919050565b600067ffffffffffffffff8211156139b3576139b2613d2b565b5b6139bc82613d5a565b9050602081019050919050565b6000819050602082019050919050565b600081519050919050565b600081519050919050565b600081519050919050565b6000602082019050919050565b600082825260208201905092915050565b600082825260208201905092915050565b600081905092915050565b600082825260208201905092915050565b600081905092915050565b6000613a5b82613b75565b9150613a6683613b75565b9250827fffffffffffffffffffffffffffffffffffffffffffffffffffffffffffffffff03821115613a9b57613a9a613c9e565b5b828201905092915050565b6000613ab182613b75565b9150613abc83613b75565b925082613acc57613acb613ccd565b5b828204905092915050565b6000613ae282613b75565b9150613aed83613b75565b925082821015613b0057613aff613c9e565b5b828203905092915050565b6000613b1682613b55565b9050919050565b60008115159050919050565b60007fffffffff0000000000000000000000000000000000000000000000000000000082169050919050565b600073ffffffffffffffffffffffffffffffffffffffff82169050919050565b6000819050919050565b82818337600083830152505050565b60005b83811015613bac578082015181840152602081019050613b91565b83811115613bbb576000848401525b50505050565b60006002820490506001821680613bd957607f821691505b60208210811415613bed57613bec613cfc565b5b50919050565b613bfc82613d5a565b810181811067ffffffffffffffff82111715613c1b57613c1a613d2b565b5b80604052505050565b6000613c2f82613b75565b91507fffffffffffffffffffffffffffffffffffffffffffffffffffffffffffffffff821415613c6257613c61613c9e565b5b600182019050919050565b6000613c7882613b75565b9150613c8383613b75565b925082613c9357613c92613ccd565b5b828206905092915050565b7f4e487b7100000000000000000000000000000000000000000000000000000000600052601160045260246000fd5b7f4e487b7100000000000000000000000000000000000000000000000000000000600052601260045260246000fd5b7f4e487b7100000000000000000000000000000000000000000000000000000000600052602260045260246000fd5b7f4e487b7100000000000000000000000000000000000000000000000000000000600052604160045260246000fd5b6000601f19601f8301169050919050565b7f4e6f7420656e6f756768204e465473206c65667420746f207265736572766500600082015250565b7f455243373231456e756d657261626c653a206f776e657220696e646578206f7560008201527f74206f6620626f756e6473000000000000000000000000000000000000000000602082015250565b7f4552433732313a207472616e7366657220746f206e6f6e20455243373231526560008201527f63656976657220696d706c656d656e7465720000000000000000000000000000602082015250565b7f4f776e61626c653a206e6577206f776e657220697320746865207a65726f206160008201527f6464726573730000000000000000000000000000000000000000000000000000602082015250565b7f4552433732313a207472616e736665722066726f6d20696e636f72726563742060008201527f6f776e6572000000000000000000000000000000000000000000000000000000602082015250565b7f4552433732313a20746f6b656e20616c7265616479206d696e74656400000000600082015250565b7f4552433732313a207472616e7366657220746f20746865207a65726f2061646460008201527f7265737300000000000000000000000000000000000000000000000000000000602082015250565b7f4552433732313a20617070726f766520746f2063616c6c657200000000000000600082015250565b7f4e6f7420656e6f756768204e465473206c656674210000000000000000000000600082015250565b7f4552433732313a206f70657261746f7220717565727920666f72206e6f6e657860008201527f697374656e7420746f6b656e0000000000000000000000000000000000000000602082015250565b7f4552433732313a20617070726f76652063616c6c6572206973206e6f74206f7760008201527f6e6572206e6f7220617070726f76656420666f7220616c6c0000000000000000602082015250565b7f4552433732313a2062616c616e636520717565727920666f7220746865207a6560008201527f726f206164647265737300000000000000000000000000000000000000000000602082015250565b7f4552433732313a206f776e657220717565727920666f72206e6f6e657869737460008201527f656e7420746f6b656e0000000000000000000000000000000000000000000000602082015250565b7f4552433732313a206d696e7420746f20746865207a65726f2061646472657373600082015250565b7f4e6f206574686572206c65667420746f20776974686472617700000000000000600082015250565b7f4552433732313a20617070726f76656420717565727920666f72206e6f6e657860008201527f697374656e7420746f6b656e0000000000000000000000000000000000000000602082015250565b7f4f776e61626c653a2063616c6c6572206973206e6f7420746865206f776e6572600082015250565b7f4552433732314d657461646174613a2055524920717565727920666f72206e6f60008201527f6e6578697374656e7420746f6b656e0000000000000000000000000000000000602082015250565b7f4552433732313a20617070726f76616c20746f2063757272656e74206f776e6560008201527f7200000000000000000000000000000000000000000000000000000000000000602082015250565b50565b7f5472616e73666572206661696c65642e00000000000000000000000000000000600082015250565b7f4552433732313a207472616e736665722063616c6c6572206973206e6f74206f60008201527f776e6572206e6f7220617070726f766564000000000000000000000000000000602082015250565b7f455243373231456e756d657261626c653a20676c6f62616c20696e646578206f60008201527f7574206f6620626f756e64730000000000000000000000000000000000000000602082015250565b7f43616e6e6f74206d696e7420737065636966696564206e756d626572206f662060008201527f4e4654732e20596f752063616e206d696e74206174206d6f7374203130204e4660208201527f54206174206f6e63650000000000000000000000000000000000000000000000604082015250565b61438681613b0b565b811461439157600080fd5b50565b61439d81613b1d565b81146143a857600080fd5b50565b6143b481613b29565b81146143bf57600080fd5b50565b6143cb81613b75565b81146143d657600080fd5b5056fea264697066735822122018583a16f60999e829f1af341f05df0acbef99e526c22e75de40e99d6336e67364736f6c63430008040033",
  "linkReferences": {},
  "deployedLinkReferences": {}
}