{
  "_format": "hh-sol-artifact-1",
  "contractName": "PEACE2UKRAINE",
  "sourceName": "contracts/Peace2Ukraine.sol",
  "abi": [
    {
      "inputs": [],
      "stateMutability": "nonpayable",
      "type": "constructor"
    },
    {
      "anonymous": false,
      "inputs": [
        {
          "indexed": true,
          "internalType": "address",
          "name": "owner",
          "type": "address"
        },
        {
          "indexed": true,
          "internalType": "address",
          "name": "approved",
          "type": "address"
        },
        {
          "indexed": true,
          "internalType": "uint256",
          "name": "tokenId",
          "type": "uint256"
        }
      ],
      "name": "Approval",
      "type": "event"
    },
    {
      "anonymous": false,
      "inputs": [
        {
          "indexed": true,
          "internalType": "address",
          "name": "owner",
          "type": "address"
        },
        {
          "indexed": true,
          "internalType": "address",
          "name": "operator",
          "type": "address"
        },
        {
          "indexed": false,
          "internalType": "bool",
          "name": "approved",
          "type": "bool"
        }
      ],
      "name": "ApprovalForAll",
      "type": "event"
    },
    {
      "anonymous": false,
      "inputs": [
        {
          "indexed": true,
          "internalType": "address",
          "name": "previousOwner",
          "type": "address"
        },
        {
          "indexed": true,
          "internalType": "address",
          "name": "newOwner",
          "type": "address"
        }
      ],
      "name": "OwnershipTransferred",
      "type": "event"
    },
    {
      "anonymous": false,
      "inputs": [
        {
          "indexed": true,
          "internalType": "address",
          "name": "from",
          "type": "address"
        },
        {
          "indexed": true,
          "internalType": "address",
          "name": "to",
          "type": "address"
        },
        {
          "indexed": true,
          "internalType": "uint256",
          "name": "tokenId",
          "type": "uint256"
        }
      ],
      "name": "Transfer",
      "type": "event"
    },
    {
      "inputs": [],
      "name": "MAX_PER_MINT",
      "outputs": [
        {
          "internalType": "uint256",
          "name": "",
          "type": "uint256"
        }
      ],
      "stateMutability": "view",
      "type": "function"
    },
    {
      "inputs": [],
      "name": "MAX_SUPPLY",
      "outputs": [
        {
          "internalType": "uint256",
          "name": "",
          "type": "uint256"
        }
      ],
      "stateMutability": "view",
      "type": "function"
    },
    {
      "inputs": [
        {
          "internalType": "uint256",
          "name": "",
          "type": "uint256"
        }
      ],
      "name": "_collections",
      "outputs": [
        {
          "internalType": "string",
          "name": "",
          "type": "string"
        }
      ],
      "stateMutability": "view",
      "type": "function"
    },
    {
      "inputs": [],
      "name": "_lastTokenID",
      "outputs": [
        {
          "internalType": "uint256",
          "name": "",
          "type": "uint256"
        }
      ],
      "stateMutability": "view",
      "type": "function"
    },
    {
      "inputs": [
        {
          "internalType": "string",
          "name": "_collectionURI",
          "type": "string"
        }
      ],
      "name": "addCollection",
      "outputs": [],
      "stateMutability": "nonpayable",
      "type": "function"
    },
    {
      "inputs": [
        {
          "internalType": "address",
          "name": "to",
          "type": "address"
        },
        {
          "internalType": "uint256",
          "name": "tokenId",
          "type": "uint256"
        }
      ],
      "name": "approve",
      "outputs": [],
      "stateMutability": "nonpayable",
      "type": "function"
    },
    {
      "inputs": [
        {
          "internalType": "address",
          "name": "owner",
          "type": "address"
        }
      ],
      "name": "balanceOf",
      "outputs": [
        {
          "internalType": "uint256",
          "name": "",
          "type": "uint256"
        }
      ],
      "stateMutability": "view",
      "type": "function"
    },
    {
      "inputs": [
        {
          "internalType": "uint256",
          "name": "collectionID",
          "type": "uint256"
        }
      ],
      "name": "burnCollection",
      "outputs": [],
      "stateMutability": "nonpayable",
      "type": "function"
    },
    {
      "inputs": [
        {
          "internalType": "uint256",
          "name": "_tokenID",
          "type": "uint256"
        }
      ],
      "name": "burnNFT",
      "outputs": [],
      "stateMutability": "nonpayable",
      "type": "function"
    },
    {
      "inputs": [],
      "name": "donateRate",
      "outputs": [
        {
          "internalType": "uint256",
          "name": "",
          "type": "uint256"
        }
      ],
      "stateMutability": "view",
      "type": "function"
    },
    {
      "inputs": [
        {
          "internalType": "uint256",
          "name": "tokenId",
          "type": "uint256"
        }
      ],
      "name": "getApproved",
      "outputs": [
        {
          "internalType": "address",
          "name": "",
          "type": "address"
        }
      ],
      "stateMutability": "view",
      "type": "function"
    },
    {
      "inputs": [
        {
          "internalType": "address",
          "name": "owner",
          "type": "address"
        },
        {
          "internalType": "address",
          "name": "operator",
          "type": "address"
        }
      ],
      "name": "isApprovedForAll",
      "outputs": [
        {
          "internalType": "bool",
          "name": "",
          "type": "bool"
        }
      ],
      "stateMutability": "view",
      "type": "function"
    },
    {
      "inputs": [
        {
          "internalType": "uint256",
          "name": "_count",
          "type": "uint256"
        },
        {
          "internalType": "string[]",
          "name": "_tokenURIs",
          "type": "string[]"
        }
      ],
      "name": "mintNFTs",
      "outputs": [],
      "stateMutability": "nonpayable",
      "type": "function"
    },
    {
      "inputs": [
        {
          "internalType": "string",
          "name": "_tokenURI",
          "type": "string"
        }
      ],
      "name": "mintSingleNFT",
      "outputs": [],
      "stateMutability": "nonpayable",
      "type": "function"
    },
    {
      "inputs": [],
      "name": "name",
      "outputs": [
        {
          "internalType": "string",
          "name": "",
          "type": "string"
        }
      ],
      "stateMutability": "view",
      "type": "function"
    },
    {
      "inputs": [],
      "name": "owner",
      "outputs": [
        {
          "internalType": "address",
          "name": "",
          "type": "address"
        }
      ],
      "stateMutability": "view",
      "type": "function"
    },
    {
      "inputs": [
        {
          "internalType": "uint256",
          "name": "tokenId",
          "type": "uint256"
        }
      ],
      "name": "ownerOf",
      "outputs": [
        {
          "internalType": "address",
          "name": "",
          "type": "address"
        }
      ],
      "stateMutability": "view",
      "type": "function"
    },
    {
      "inputs": [],
      "name": "price",
      "outputs": [
        {
          "internalType": "uint256",
          "name": "",
          "type": "uint256"
        }
      ],
      "stateMutability": "view",
      "type": "function"
    },
    {
      "inputs": [
        {
          "internalType": "uint256",
          "name": "_tokenId",
          "type": "uint256"
        }
      ],
      "name": "purchaseToken",
      "outputs": [],
      "stateMutability": "payable",
      "type": "function"
    },
    {
      "inputs": [],
      "name": "renounceOwnership",
      "outputs": [],
      "stateMutability": "nonpayable",
      "type": "function"
    },
    {
      "inputs": [
        {
          "internalType": "address",
          "name": "from",
          "type": "address"
        },
        {
          "internalType": "address",
          "name": "to",
          "type": "address"
        },
        {
          "internalType": "uint256",
          "name": "tokenId",
          "type": "uint256"
        }
      ],
      "name": "safeTransferFrom",
      "outputs": [],
      "stateMutability": "nonpayable",
      "type": "function"
    },
    {
      "inputs": [
        {
          "internalType": "address",
          "name": "from",
          "type": "address"
        },
        {
          "internalType": "address",
          "name": "to",
          "type": "address"
        },
        {
          "internalType": "uint256",
          "name": "tokenId",
          "type": "uint256"
        },
        {
          "internalType": "bytes",
          "name": "_data",
          "type": "bytes"
        }
      ],
      "name": "safeTransferFrom",
      "outputs": [],
      "stateMutability": "nonpayable",
      "type": "function"
    },
    {
      "inputs": [
        {
          "internalType": "address payable",
          "name": "recipient",
          "type": "address"
        },
        {
          "internalType": "uint256",
          "name": "amount",
          "type": "uint256"
        }
      ],
      "name": "sendValue",
      "outputs": [],
      "stateMutability": "nonpayable",
      "type": "function"
    },
    {
      "inputs": [
        {
          "internalType": "address",
          "name": "operator",
          "type": "address"
        },
        {
          "internalType": "bool",
          "name": "approved",
          "type": "bool"
        }
      ],
      "name": "setApprovalForAll",
      "outputs": [],
      "stateMutability": "nonpayable",
      "type": "function"
    },
    {
      "inputs": [
        {
          "internalType": "uint256",
          "name": "collectionID",
          "type": "uint256"
        },
        {
          "internalType": "string",
          "name": "_collectionURI",
          "type": "string"
        }
      ],
      "name": "setCollection",
      "outputs": [],
      "stateMutability": "nonpayable",
      "type": "function"
    },
    {
      "inputs": [
        {
          "internalType": "address",
          "name": "_address",
          "type": "address"
        }
      ],
      "name": "setDonateAddress",
      "outputs": [],
      "stateMutability": "nonpayable",
      "type": "function"
    },
    {
      "inputs": [
        {
          "internalType": "uint256",
          "name": "_rate",
          "type": "uint256"
        }
      ],
      "name": "setDonateRate",
      "outputs": [],
      "stateMutability": "nonpayable",
      "type": "function"
    },
    {
      "inputs": [
        {
          "internalType": "uint256",
          "name": "_price",
          "type": "uint256"
        }
      ],
      "name": "setPrice",
      "outputs": [],
      "stateMutability": "nonpayable",
      "type": "function"
    },
    {
      "inputs": [
        {
          "internalType": "bytes4",
          "name": "interfaceId",
          "type": "bytes4"
        }
      ],
      "name": "supportsInterface",
      "outputs": [
        {
          "internalType": "bool",
          "name": "",
          "type": "bool"
        }
      ],
      "stateMutability": "view",
      "type": "function"
    },
    {
      "inputs": [],
      "name": "symbol",
      "outputs": [
        {
          "internalType": "string",
          "name": "",
          "type": "string"
        }
      ],
      "stateMutability": "view",
      "type": "function"
    },
    {
      "inputs": [
        {
          "internalType": "uint256",
          "name": "index",
          "type": "uint256"
        }
      ],
      "name": "tokenByIndex",
      "outputs": [
        {
          "internalType": "uint256",
          "name": "",
          "type": "uint256"
        }
      ],
      "stateMutability": "view",
      "type": "function"
    },
    {
      "inputs": [
        {
          "internalType": "address",
          "name": "owner",
          "type": "address"
        },
        {
          "internalType": "uint256",
          "name": "index",
          "type": "uint256"
        }
      ],
      "name": "tokenOfOwnerByIndex",
      "outputs": [
        {
          "internalType": "uint256",
          "name": "",
          "type": "uint256"
        }
      ],
      "stateMutability": "view",
      "type": "function"
    },
    {
      "inputs": [
        {
          "internalType": "uint256",
          "name": "tokenId",
          "type": "uint256"
        }
      ],
      "name": "tokenURI",
      "outputs": [
        {
          "internalType": "string",
          "name": "",
          "type": "string"
        }
      ],
      "stateMutability": "view",
      "type": "function"
    },
    {
      "inputs": [
        {
          "internalType": "address",
          "name": "_owner",
          "type": "address"
        }
      ],
      "name": "tokensOfOwner",
      "outputs": [
        {
          "internalType": "uint256[]",
          "name": "",
          "type": "uint256[]"
        }
      ],
      "stateMutability": "view",
      "type": "function"
    },
    {
      "inputs": [],
      "name": "totalSupply",
      "outputs": [
        {
          "internalType": "uint256",
          "name": "",
          "type": "uint256"
        }
      ],
      "stateMutability": "view",
      "type": "function"
    },
    {
      "inputs": [
        {
          "internalType": "address",
          "name": "from",
          "type": "address"
        },
        {
          "internalType": "address",
          "name": "to",
          "type": "address"
        },
        {
          "internalType": "uint256",
          "name": "tokenId",
          "type": "uint256"
        }
      ],
      "name": "transferFrom",
      "outputs": [],
      "stateMutability": "nonpayable",
      "type": "function"
    },
    {
      "inputs": [
        {
          "internalType": "address",
          "name": "newOwner",
          "type": "address"
        }
      ],
      "name": "transferOwnership",
      "outputs": [],
      "stateMutability": "nonpayable",
      "type": "function"
    },
    {
      "inputs": [],
      "name": "withdraw",
      "outputs": [],
      "stateMutability": "payable",
      "type": "function"
    }
  ],
  "bytecode": "0x608060405266b1a2bc2ec50000600e556014600f553480156200002157600080fd5b506040518060400160405280600f81526020017f5065616365203220556b7261696e6500000000000000000000000000000000008152506040518060400160405280600d81526020017f504541434532554b5241494e45000000000000000000000000000000000000008152508160009080519060200190620000a6929190620001b6565b508060019080519060200190620000bf929190620001b6565b505050620000e2620000d6620000e860201b60201c565b620000f060201b60201c565b620002cb565b600033905090565b6000600a60009054906101000a900473ffffffffffffffffffffffffffffffffffffffff16905081600a60006101000a81548173ffffffffffffffffffffffffffffffffffffffff021916908373ffffffffffffffffffffffffffffffffffffffff1602179055508173ffffffffffffffffffffffffffffffffffffffff168173ffffffffffffffffffffffffffffffffffffffff167f8be0079c531659141344cd1fd0a4f28419497f9722a3daafe3b4186f6b6457e060405160405180910390a35050565b828054620001c49062000266565b90600052602060002090601f016020900481019282620001e8576000855562000234565b82601f106200020357805160ff191683800117855562000234565b8280016001018555821562000234579182015b828111156200023357825182559160200191906001019062000216565b5b50905062000243919062000247565b5090565b5b808211156200026257600081600090555060010162000248565b5090565b600060028204905060018216806200027f57607f821691505b602082108114156200029657620002956200029c565b5b50919050565b7f4e487b7100000000000000000000000000000000000000000000000000000000600052602260045260246000fd5b61513f80620002db6000396000f3fe6080604052600436106102255760003560e01c80636352211e1161012357806395d89b41116100ab578063c87b56dd1161006f578063c87b56dd146107e5578063e939427c14610822578063e985e9c51461084d578063f2fde38b1461088a578063fc1dfc42146108b357610225565b806395d89b4114610721578063a035b1fe1461074c578063a22cb46514610777578063b88d4fde146107a0578063c2db2c42146107c957610225565b8063797ecfcb116100f2578063797ecfcb1461062a5780638462151c146106535780638da5cb5b1461069057806391b7f5ed146106bb57806394bcce4b146106e457610225565b80636352211e1461056e57806365f07eea146105ab57806370a08231146105d6578063715018a61461061357610225565b806323b872dd116101b15780633ccfd60b116101755780633ccfd60b146104ac57806342842e0e146104b657806347c0474a146104df5780634f6ccce714610508578063592e03551461054557610225565b806323b872dd146103c957806324a084df146103f25780632890e0d71461041b5780632f745c591461044457806332cb6b0c1461048157610225565b806309d42b30116101f857806309d42b30146102f857806318160ddd146103235780631a0c98311461034e5780631a76c6471461037757806322b5dabd146103a057610225565b806301ffc9a71461022a57806306fdde0314610267578063081812fc14610292578063095ea7b3146102cf575b600080fd5b34801561023657600080fd5b50610251600480360381019061024c9190613a00565b6108dc565b60405161025e919061414f565b60405180910390f35b34801561027357600080fd5b5061027c610956565b604051610289919061416a565b60405180910390f35b34801561029e57600080fd5b506102b960048036038101906102b49190613a93565b6109e8565b6040516102c691906140c6565b60405180910390f35b3480156102db57600080fd5b506102f660048036038101906102f191906139c4565b610a6d565b005b34801561030457600080fd5b5061030d610b85565b60405161031a91906144ec565b60405180910390f35b34801561032f57600080fd5b50610338610b8a565b60405161034591906144ec565b60405180910390f35b34801561035a57600080fd5b5061037560048036038101906103709190613a93565b610b97565b005b34801561038357600080fd5b5061039e60048036038101906103999190613b10565b610c43565b005b3480156103ac57600080fd5b506103c760048036038101906103c29190613a52565b610ca0565b005b3480156103d557600080fd5b506103f060048036038101906103eb91906138be565b610d8f565b005b3480156103fe57600080fd5b5061041960048036038101906104149190613846565b610def565b005b34801561042757600080fd5b50610442600480360381019061043d9190613a93565b610f5f565b005b34801561045057600080fd5b5061046b600480360381019061046691906139c4565b610fe7565b60405161047891906144ec565b60405180910390f35b34801561048d57600080fd5b5061049661108c565b6040516104a391906144ec565b60405180910390f35b6104b4611092565b005b3480156104c257600080fd5b506104dd60048036038101906104d891906138be565b611206565b005b3480156104eb57600080fd5b5061050660048036038101906105019190613abc565b611226565b005b34801561051457600080fd5b5061052f600480360381019061052a9190613a93565b6113c4565b60405161053c91906144ec565b60405180910390f35b34801561055157600080fd5b5061056c60048036038101906105679190613a52565b61145b565b005b34801561057a57600080fd5b5061059560048036038101906105909190613a93565b61149a565b6040516105a291906140c6565b60405180910390f35b3480156105b757600080fd5b506105c061154c565b6040516105cd91906144ec565b60405180910390f35b3480156105e257600080fd5b506105fd60048036038101906105f8919061381d565b611552565b60405161060a91906144ec565b60405180910390f35b34801561061f57600080fd5b5061062861160a565b005b34801561063657600080fd5b50610651600480360381019061064c919061381d565b611692565b005b34801561065f57600080fd5b5061067a6004803603810190610675919061381d565b6117c4565b604051610687919061412d565b60405180910390f35b34801561069c57600080fd5b506106a56118be565b6040516106b291906140c6565b60405180910390f35b3480156106c757600080fd5b506106e260048036038101906106dd9190613a93565b6118e8565b005b3480156106f057600080fd5b5061070b60048036038101906107069190613a93565b61197b565b604051610718919061416a565b60405180910390f35b34801561072d57600080fd5b50610736611a27565b604051610743919061416a565b60405180910390f35b34801561075857600080fd5b50610761611ab9565b60405161076e91906144ec565b60405180910390f35b34801561078357600080fd5b5061079e60048036038101906107999190613988565b611abf565b005b3480156107ac57600080fd5b506107c760048036038101906107c2919061390d565b611ad5565b005b6107e360048036038101906107de9190613a93565b611b37565b005b3480156107f157600080fd5b5061080c60048036038101906108079190613a93565b611c11565b604051610819919061416a565b60405180910390f35b34801561082e57600080fd5b50610837611d63565b60405161084491906144ec565b60405180910390f35b34801561085957600080fd5b50610874600480360381019061086f9190613882565b611d74565b604051610881919061414f565b60405180910390f35b34801561089657600080fd5b506108b160048036038101906108ac919061381d565b611e08565b005b3480156108bf57600080fd5b506108da60048036038101906108d59190613a93565b611f00565b005b60007f780e9d63000000000000000000000000000000000000000000000000000000007bffffffffffffffffffffffffffffffffffffffffffffffffffffffff1916827bffffffffffffffffffffffffffffffffffffffffffffffffffffffff1916148061094f575061094e82611f93565b5b9050919050565b606060008054610965906147c4565b80601f0160208091040260200160405190810160405280929190818152602001828054610991906147c4565b80156109de5780601f106109b3576101008083540402835291602001916109de565b820191906000526020600020905b8154815290600101906020018083116109c157829003601f168201915b5050505050905090565b60006109f382612075565b610a32576040517f08c379a0000000000000000000000000000000000000000000000000000000008152600401610a29906143ec565b60405180910390fd5b6004600083815260200190815260200160002060009054906101000a900473ffffffffffffffffffffffffffffffffffffffff169050919050565b6000610a788261149a565b90508073ffffffffffffffffffffffffffffffffffffffff168373ffffffffffffffffffffffffffffffffffffffff161415610ae9576040517f08c379a0000000000000000000000000000000000000000000000000000000008152600401610ae09061444c565b60405180910390fd5b8073ffffffffffffffffffffffffffffffffffffffff16610b086120e1565b73ffffffffffffffffffffffffffffffffffffffff161480610b375750610b3681610b316120e1565b611d74565b5b610b76576040517f08c379a0000000000000000000000000000000000000000000000000000000008152600401610b6d9061430c565b60405180910390fd5b610b8083836120e9565b505050565b600a81565b6000600880549050905090565b6000600c8281548110610bd3577f4e487b7100000000000000000000000000000000000000000000000000000000600052603260045260246000fd5b906000526020600020018054610be8906147c4565b905014610c4057600c8181548110610c29577f4e487b7100000000000000000000000000000000000000000000000000000000600052603260045260246000fd5b906000526020600020016000610c3f919061353c565b5b50565b80600c8381548110610c7e577f4e487b7100000000000000000000000000000000000000000000000000000000600052603260045260246000fd5b906000526020600020019080519060200190610c9b92919061357c565b505050565b610ca86120e1565b73ffffffffffffffffffffffffffffffffffffffff16610cc66118be565b73ffffffffffffffffffffffffffffffffffffffff1614610d1c576040517f08c379a0000000000000000000000000000000000000000000000000000000008152600401610d139061440c565b60405180910390fd5b6000610d28600d6121a2565b90506103e8610d416001836121b090919063ffffffff16565b1115610d82576040517f08c379a0000000000000000000000000000000000000000000000000000000008152600401610d79906142cc565b60405180910390fd5b610d8b826121c6565b5050565b610da0610d9a6120e1565b826121f6565b610ddf576040517f08c379a0000000000000000000000000000000000000000000000000000000008152600401610dd69061448c565b60405180910390fd5b610dea8383836122d4565b505050565b610df76120e1565b73ffffffffffffffffffffffffffffffffffffffff16610e156118be565b73ffffffffffffffffffffffffffffffffffffffff1614610e6b576040517f08c379a0000000000000000000000000000000000000000000000000000000008152600401610e629061440c565b60405180910390fd5b80471015610eae576040517f08c379a0000000000000000000000000000000000000000000000000000000008152600401610ea5906142ac565b60405180910390fd5b60008273ffffffffffffffffffffffffffffffffffffffff1682604051610ed4906140b1565b60006040518083038185875af1925050503d8060008114610f11576040519150601f19603f3d011682016040523d82523d6000602084013e610f16565b606091505b5050905080610f5a576040517f08c379a0000000000000000000000000000000000000000000000000000000008152600401610f519061428c565b60405180910390fd5b505050565b610f676120e1565b73ffffffffffffffffffffffffffffffffffffffff16610f856118be565b73ffffffffffffffffffffffffffffffffffffffff1614610fdb576040517f08c379a0000000000000000000000000000000000000000000000000000000008152600401610fd29061440c565b60405180910390fd5b610fe48161253b565b50565b6000610ff283611552565b8210611033576040517f08c379a000000000000000000000000000000000000000000000000000000000815260040161102a906141ac565b60405180910390fd5b600660008473ffffffffffffffffffffffffffffffffffffffff1673ffffffffffffffffffffffffffffffffffffffff168152602001908152602001600020600083815260200190815260200160002054905092915050565b6103e881565b61109a6120e1565b73ffffffffffffffffffffffffffffffffffffffff166110b86118be565b73ffffffffffffffffffffffffffffffffffffffff161461110e576040517f08c379a00000000000000000000000000000000000000000000000000000000081526004016111059061440c565b60405180910390fd5b600047905060008111611156576040517f08c379a000000000000000000000000000000000000000000000000000000000815260040161114d906143ac565b60405180910390fd5b60003373ffffffffffffffffffffffffffffffffffffffff168260405161117c906140b1565b60006040518083038185875af1925050503d80600081146111b9576040519150601f19603f3d011682016040523d82523d6000602084013e6111be565b606091505b5050905080611202576040517f08c379a00000000000000000000000000000000000000000000000000000000081526004016111f99061446c565b60405180910390fd5b5050565b61122183838360405180602001604052806000815250611ad5565b505050565b61122e6120e1565b73ffffffffffffffffffffffffffffffffffffffff1661124c6118be565b73ffffffffffffffffffffffffffffffffffffffff16146112a2576040517f08c379a00000000000000000000000000000000000000000000000000000000081526004016112999061440c565b60405180910390fd5b60006112ae600d6121a2565b90506103e86112c684836121b090919063ffffffff16565b1115611307576040517f08c379a00000000000000000000000000000000000000000000000000000000081526004016112fe906142cc565b60405180910390fd5b6000831180156113185750600a8311155b611357576040517f08c379a000000000000000000000000000000000000000000000000000000000815260040161134e906144cc565b60405180910390fd5b60005b838110156113be576113ab83828151811061139e577f4e487b7100000000000000000000000000000000000000000000000000000000600052603260045260246000fd5b60200260200101516121c6565b80806113b690614827565b91505061135a565b50505050565b60006113ce610b8a565b821061140f576040517f08c379a0000000000000000000000000000000000000000000000000000000008152600401611406906144ac565b60405180910390fd5b60088281548110611449577f4e487b7100000000000000000000000000000000000000000000000000000000600052603260045260246000fd5b90600052602060002001549050919050565b600c8190806001815401808255809150506001900390600052602060002001600090919091909150908051906020019061149692919061357c565b5050565b6000806002600084815260200190815260200160002060009054906101000a900473ffffffffffffffffffffffffffffffffffffffff169050600073ffffffffffffffffffffffffffffffffffffffff168173ffffffffffffffffffffffffffffffffffffffff161415611543576040517f08c379a000000000000000000000000000000000000000000000000000000000815260040161153a9061434c565b60405180910390fd5b80915050919050565b600f5481565b60008073ffffffffffffffffffffffffffffffffffffffff168273ffffffffffffffffffffffffffffffffffffffff1614156115c3576040517f08c379a00000000000000000000000000000000000000000000000000000000081526004016115ba9061432c565b60405180910390fd5b600360008373ffffffffffffffffffffffffffffffffffffffff1673ffffffffffffffffffffffffffffffffffffffff168152602001908152602001600020549050919050565b6116126120e1565b73ffffffffffffffffffffffffffffffffffffffff166116306118be565b73ffffffffffffffffffffffffffffffffffffffff1614611686576040517f08c379a000000000000000000000000000000000000000000000000000000000815260040161167d9061440c565b60405180910390fd5b611690600061258e565b565b61169a6120e1565b73ffffffffffffffffffffffffffffffffffffffff166116b86118be565b73ffffffffffffffffffffffffffffffffffffffff161461170e576040517f08c379a00000000000000000000000000000000000000000000000000000000081526004016117059061440c565b60405180910390fd5b600073ffffffffffffffffffffffffffffffffffffffff168173ffffffffffffffffffffffffffffffffffffffff161415801561177757503073ffffffffffffffffffffffffffffffffffffffff168173ffffffffffffffffffffffffffffffffffffffff1614155b61178057600080fd5b80601060006101000a81548173ffffffffffffffffffffffffffffffffffffffff021916908373ffffffffffffffffffffffffffffffffffffffff16021790555050565b606060006117d183611552565b905060008167ffffffffffffffff811115611815577f4e487b7100000000000000000000000000000000000000000000000000000000600052604160045260246000fd5b6040519080825280602002602001820160405280156118435781602001602082028036833780820191505090505b50905060005b828110156118b35761185b8582610fe7565b828281518110611894577f4e487b7100000000000000000000000000000000000000000000000000000000600052603260045260246000fd5b60200260200101818152505080806118ab90614827565b915050611849565b508092505050919050565b6000600a60009054906101000a900473ffffffffffffffffffffffffffffffffffffffff16905090565b6118f06120e1565b73ffffffffffffffffffffffffffffffffffffffff1661190e6118be565b73ffffffffffffffffffffffffffffffffffffffff1614611964576040517f08c379a000000000000000000000000000000000000000000000000000000000815260040161195b9061440c565b60405180910390fd5b6000811161197157600080fd5b80600e8190555050565b600c818154811061198b57600080fd5b9060005260206000200160009150905080546119a6906147c4565b80601f01602080910402602001604051908101604052809291908181526020018280546119d2906147c4565b8015611a1f5780601f106119f457610100808354040283529160200191611a1f565b820191906000526020600020905b815481529060010190602001808311611a0257829003601f168201915b505050505081565b606060018054611a36906147c4565b80601f0160208091040260200160405190810160405280929190818152602001828054611a62906147c4565b8015611aaf5780601f10611a8457610100808354040283529160200191611aaf565b820191906000526020600020905b815481529060010190602001808311611a9257829003601f168201915b5050505050905090565b600e5481565b611ad1611aca6120e1565b8383612654565b5050565b611ae6611ae06120e1565b836121f6565b611b25576040517f08c379a0000000000000000000000000000000000000000000000000000000008152600401611b1c9061448c565b60405180910390fd5b611b31848484846127c1565b50505050565b600073ffffffffffffffffffffffffffffffffffffffff163373ffffffffffffffffffffffffffffffffffffffff1614158015611ba057503073ffffffffffffffffffffffffffffffffffffffff163373ffffffffffffffffffffffffffffffffffffffff1614155b611ba957600080fd5b600e54341015611bee576040517f08c379a0000000000000000000000000000000000000000000000000000000008152600401611be59061418c565b60405180910390fd5b611bf8600d6121a2565b8110611c0357600080fd5b611c0e303383611206565b50565b6060611c1c82612075565b611c5b576040517f08c379a0000000000000000000000000000000000000000000000000000000008152600401611c52906143cc565b60405180910390fd5b6000600b60008481526020019081526020016000208054611c7b906147c4565b80601f0160208091040260200160405190810160405280929190818152602001828054611ca7906147c4565b8015611cf45780601f10611cc957610100808354040283529160200191611cf4565b820191906000526020600020905b815481529060010190602001808311611cd757829003601f168201915b505050505090506000611d0561281d565b9050600081511415611d1b578192505050611d5e565b600082511115611d50578082604051602001611d3892919061408d565b60405160208183030381529060405292505050611d5e565b611d5984612834565b925050505b919050565b6000611d6f600d6121a2565b905090565b6000600560008473ffffffffffffffffffffffffffffffffffffffff1673ffffffffffffffffffffffffffffffffffffffff16815260200190815260200160002060008373ffffffffffffffffffffffffffffffffffffffff1673ffffffffffffffffffffffffffffffffffffffff16815260200190815260200160002060009054906101000a900460ff16905092915050565b611e106120e1565b73ffffffffffffffffffffffffffffffffffffffff16611e2e6118be565b73ffffffffffffffffffffffffffffffffffffffff1614611e84576040517f08c379a0000000000000000000000000000000000000000000000000000000008152600401611e7b9061440c565b60405180910390fd5b600073ffffffffffffffffffffffffffffffffffffffff168173ffffffffffffffffffffffffffffffffffffffff161415611ef4576040517f08c379a0000000000000000000000000000000000000000000000000000000008152600401611eeb906141ec565b60405180910390fd5b611efd8161258e565b50565b611f086120e1565b73ffffffffffffffffffffffffffffffffffffffff16611f266118be565b73ffffffffffffffffffffffffffffffffffffffff1614611f7c576040517f08c379a0000000000000000000000000000000000000000000000000000000008152600401611f739061440c565b60405180910390fd5b60008111611f8957600080fd5b80600f8190555050565b60007f80ac58cd000000000000000000000000000000000000000000000000000000007bffffffffffffffffffffffffffffffffffffffffffffffffffffffff1916827bffffffffffffffffffffffffffffffffffffffffffffffffffffffff1916148061205e57507f5b5e139f000000000000000000000000000000000000000000000000000000007bffffffffffffffffffffffffffffffffffffffffffffffffffffffff1916827bffffffffffffffffffffffffffffffffffffffffffffffffffffffff1916145b8061206e575061206d826128db565b5b9050919050565b60008073ffffffffffffffffffffffffffffffffffffffff166002600084815260200190815260200160002060009054906101000a900473ffffffffffffffffffffffffffffffffffffffff1673ffffffffffffffffffffffffffffffffffffffff1614159050919050565b600033905090565b816004600083815260200190815260200160002060006101000a81548173ffffffffffffffffffffffffffffffffffffffff021916908373ffffffffffffffffffffffffffffffffffffffff160217905550808273ffffffffffffffffffffffffffffffffffffffff1661215c8361149a565b73ffffffffffffffffffffffffffffffffffffffff167f8c5be1e5ebec7d5bd14f71427d1e84f3dd0314c0f7b2291e5b200ac8c7c3b92560405160405180910390a45050565b600081600001549050919050565b600081836121be9190614641565b905092915050565b60006121d2600d6121a2565b90506121de3382612945565b6121e88183612963565b6121f2600d6129d7565b5050565b600061220182612075565b612240576040517f08c379a0000000000000000000000000000000000000000000000000000000008152600401612237906142ec565b60405180910390fd5b600061224b8361149a565b90508073ffffffffffffffffffffffffffffffffffffffff168473ffffffffffffffffffffffffffffffffffffffff1614806122ba57508373ffffffffffffffffffffffffffffffffffffffff166122a2846109e8565b73ffffffffffffffffffffffffffffffffffffffff16145b806122cb57506122ca8185611d74565b5b91505092915050565b8273ffffffffffffffffffffffffffffffffffffffff166122f48261149a565b73ffffffffffffffffffffffffffffffffffffffff161461234a576040517f08c379a00000000000000000000000000000000000000000000000000000000081526004016123419061420c565b60405180910390fd5b600073ffffffffffffffffffffffffffffffffffffffff168273ffffffffffffffffffffffffffffffffffffffff1614156123ba576040517f08c379a00000000000000000000000000000000000000000000000000000000081526004016123b19061424c565b60405180910390fd5b6123c58383836129ed565b6123d06000826120e9565b6001600360008573ffffffffffffffffffffffffffffffffffffffff1673ffffffffffffffffffffffffffffffffffffffff168152602001908152602001600020600082825461242091906146c8565b925050819055506001600360008473ffffffffffffffffffffffffffffffffffffffff1673ffffffffffffffffffffffffffffffffffffffff16815260200190815260200160002060008282546124779190614641565b92505081905550816002600083815260200190815260200160002060006101000a81548173ffffffffffffffffffffffffffffffffffffffff021916908373ffffffffffffffffffffffffffffffffffffffff160217905550808273ffffffffffffffffffffffffffffffffffffffff168473ffffffffffffffffffffffffffffffffffffffff167fddf252ad1be2c89b69c2b068fc378daa952ba7f163c4a11628f55a4df523b3ef60405160405180910390a4612536838383612b01565b505050565b61254481612b06565b6000600b60008381526020019081526020016000208054612564906147c4565b90501461258b57600b6000828152602001908152602001600020600061258a919061353c565b5b50565b6000600a60009054906101000a900473ffffffffffffffffffffffffffffffffffffffff16905081600a60006101000a81548173ffffffffffffffffffffffffffffffffffffffff021916908373ffffffffffffffffffffffffffffffffffffffff1602179055508173ffffffffffffffffffffffffffffffffffffffff168173ffffffffffffffffffffffffffffffffffffffff167f8be0079c531659141344cd1fd0a4f28419497f9722a3daafe3b4186f6b6457e060405160405180910390a35050565b8173ffffffffffffffffffffffffffffffffffffffff168373ffffffffffffffffffffffffffffffffffffffff1614156126c3576040517f08c379a00000000000000000000000000000000000000000000000000000000081526004016126ba9061426c565b60405180910390fd5b80600560008573ffffffffffffffffffffffffffffffffffffffff1673ffffffffffffffffffffffffffffffffffffffff16815260200190815260200160002060008473ffffffffffffffffffffffffffffffffffffffff1673ffffffffffffffffffffffffffffffffffffffff16815260200190815260200160002060006101000a81548160ff0219169083151502179055508173ffffffffffffffffffffffffffffffffffffffff168373ffffffffffffffffffffffffffffffffffffffff167f17307eab39ab6107e8899845ad3d59bd9653f200f220920489ca2b5937696c31836040516127b4919061414f565b60405180910390a3505050565b6127cc8484846122d4565b6127d884848484612c23565b612817576040517f08c379a000000000000000000000000000000000000000000000000000000000815260040161280e906141cc565b60405180910390fd5b50505050565b606060405180602001604052806000815250905090565b606061283f82612075565b61287e576040517f08c379a00000000000000000000000000000000000000000000000000000000081526004016128759061442c565b60405180910390fd5b600061288861281d565b905060008151116128a857604051806020016040528060008152506128d3565b806128b284612dba565b6040516020016128c392919061408d565b6040516020818303038152906040525b915050919050565b60007f01ffc9a7000000000000000000000000000000000000000000000000000000007bffffffffffffffffffffffffffffffffffffffffffffffffffffffff1916827bffffffffffffffffffffffffffffffffffffffffffffffffffffffff1916149050919050565b61295f828260405180602001604052806000815250612f67565b5050565b61296c82612075565b6129ab576040517f08c379a00000000000000000000000000000000000000000000000000000000081526004016129a29061436c565b60405180910390fd5b80600b600084815260200190815260200160002090805190602001906129d292919061357c565b505050565b6001816000016000828254019250508190555050565b6129f8838383612fc2565b600073ffffffffffffffffffffffffffffffffffffffff168373ffffffffffffffffffffffffffffffffffffffff161415612a3b57612a3681612fc7565b612a7a565b8173ffffffffffffffffffffffffffffffffffffffff168373ffffffffffffffffffffffffffffffffffffffff1614612a7957612a788382613010565b5b5b600073ffffffffffffffffffffffffffffffffffffffff168273ffffffffffffffffffffffffffffffffffffffff161415612abd57612ab88161317d565b612afc565b8273ffffffffffffffffffffffffffffffffffffffff168273ffffffffffffffffffffffffffffffffffffffff1614612afb57612afa82826132c0565b5b5b505050565b505050565b6000612b118261149a565b9050612b1f816000846129ed565b612b2a6000836120e9565b6001600360008373ffffffffffffffffffffffffffffffffffffffff1673ffffffffffffffffffffffffffffffffffffffff1681526020019081526020016000206000828254612b7a91906146c8565b925050819055506002600083815260200190815260200160002060006101000a81549073ffffffffffffffffffffffffffffffffffffffff021916905581600073ffffffffffffffffffffffffffffffffffffffff168273ffffffffffffffffffffffffffffffffffffffff167fddf252ad1be2c89b69c2b068fc378daa952ba7f163c4a11628f55a4df523b3ef60405160405180910390a4612c1f81600084612b01565b5050565b6000612c448473ffffffffffffffffffffffffffffffffffffffff1661333f565b15612dad578373ffffffffffffffffffffffffffffffffffffffff1663150b7a02612c6d6120e1565b8786866040518563ffffffff1660e01b8152600401612c8f94939291906140e1565b602060405180830381600087803b158015612ca957600080fd5b505af1925050508015612cda57506040513d601f19601f82011682018060405250810190612cd79190613a29565b60015b612d5d573d8060008114612d0a576040519150601f19603f3d011682016040523d82523d6000602084013e612d0f565b606091505b50600081511415612d55576040517f08c379a0000000000000000000000000000000000000000000000000000000008152600401612d4c906141cc565b60405180910390fd5b805181602001fd5b63150b7a0260e01b7bffffffffffffffffffffffffffffffffffffffffffffffffffffffff1916817bffffffffffffffffffffffffffffffffffffffffffffffffffffffff191614915050612db2565b600190505b949350505050565b60606000821415612e02576040518060400160405280600181526020017f30000000000000000000000000000000000000000000000000000000000000008152509050612f62565b600082905060005b60008214612e34578080612e1d90614827565b915050600a82612e2d9190614697565b9150612e0a565b60008167ffffffffffffffff811115612e76577f4e487b7100000000000000000000000000000000000000000000000000000000600052604160045260246000fd5b6040519080825280601f01601f191660200182016040528015612ea85781602001600182028036833780820191505090505b5090505b60008514612f5b57600182612ec191906146c8565b9150600a85612ed09190614870565b6030612edc9190614641565b60f81b818381518110612f18577f4e487b7100000000000000000000000000000000000000000000000000000000600052603260045260246000fd5b60200101907effffffffffffffffffffffffffffffffffffffffffffffffffffffffffffff1916908160001a905350600a85612f549190614697565b9450612eac565b8093505050505b919050565b612f718383613362565b612f7e6000848484612c23565b612fbd576040517f08c379a0000000000000000000000000000000000000000000000000000000008152600401612fb4906141cc565b60405180910390fd5b505050565b505050565b6008805490506009600083815260200190815260200160002081905550600881908060018154018082558091505060019003906000526020600020016000909190919091505550565b6000600161301d84611552565b61302791906146c8565b905060006007600084815260200190815260200160002054905081811461310c576000600660008673ffffffffffffffffffffffffffffffffffffffff1673ffffffffffffffffffffffffffffffffffffffff168152602001908152602001600020600084815260200190815260200160002054905080600660008773ffffffffffffffffffffffffffffffffffffffff1673ffffffffffffffffffffffffffffffffffffffff168152602001908152602001600020600084815260200190815260200160002081905550816007600083815260200190815260200160002081905550505b6007600084815260200190815260200160002060009055600660008573ffffffffffffffffffffffffffffffffffffffff1673ffffffffffffffffffffffffffffffffffffffff16815260200190815260200160002060008381526020019081526020016000206000905550505050565b6000600160088054905061319191906146c8565b90506000600960008481526020019081526020016000205490506000600883815481106131e7577f4e487b7100000000000000000000000000000000000000000000000000000000600052603260045260246000fd5b90600052602060002001549050806008838154811061322f577f4e487b7100000000000000000000000000000000000000000000000000000000600052603260045260246000fd5b9060005260206000200181905550816009600083815260200190815260200160002081905550600960008581526020019081526020016000206000905560088054806132a4577f4e487b7100000000000000000000000000000000000000000000000000000000600052603160045260246000fd5b6001900381819060005260206000200160009055905550505050565b60006132cb83611552565b905081600660008573ffffffffffffffffffffffffffffffffffffffff1673ffffffffffffffffffffffffffffffffffffffff168152602001908152602001600020600083815260200190815260200160002081905550806007600084815260200190815260200160002081905550505050565b6000808273ffffffffffffffffffffffffffffffffffffffff163b119050919050565b600073ffffffffffffffffffffffffffffffffffffffff168273ffffffffffffffffffffffffffffffffffffffff1614156133d2576040517f08c379a00000000000000000000000000000000000000000000000000000000081526004016133c99061438c565b60405180910390fd5b6133db81612075565b1561341b576040517f08c379a00000000000000000000000000000000000000000000000000000000081526004016134129061422c565b60405180910390fd5b613427600083836129ed565b6001600360008473ffffffffffffffffffffffffffffffffffffffff1673ffffffffffffffffffffffffffffffffffffffff16815260200190815260200160002060008282546134779190614641565b92505081905550816002600083815260200190815260200160002060006101000a81548173ffffffffffffffffffffffffffffffffffffffff021916908373ffffffffffffffffffffffffffffffffffffffff160217905550808273ffffffffffffffffffffffffffffffffffffffff16600073ffffffffffffffffffffffffffffffffffffffff167fddf252ad1be2c89b69c2b068fc378daa952ba7f163c4a11628f55a4df523b3ef60405160405180910390a461353860008383612b01565b5050565b508054613548906147c4565b6000825580601f1061355a5750613579565b601f0160209004906000526020600020908101906135789190613602565b5b50565b828054613588906147c4565b90600052602060002090601f0160209004810192826135aa57600085556135f1565b82601f106135c357805160ff19168380011785556135f1565b828001600101855582156135f1579182015b828111156135f05782518255916020019190600101906135d5565b5b5090506135fe9190613602565b5090565b5b8082111561361b576000816000905550600101613603565b5090565b600061363261362d8461452c565b614507565b9050808382526020820190508285602086028201111561365157600080fd5b60005b8581101561369b57813567ffffffffffffffff81111561367357600080fd5b80860161368089826137de565b85526020850194506020840193505050600181019050613654565b5050509392505050565b60006136b86136b384614558565b614507565b9050828152602081018484840111156136d057600080fd5b6136db848285614782565b509392505050565b60006136f66136f184614589565b614507565b90508281526020810184848401111561370e57600080fd5b613719848285614782565b509392505050565b60008135905061373081615096565b92915050565b600081359050613745816150ad565b92915050565b600082601f83011261375c57600080fd5b813561376c84826020860161361f565b91505092915050565b600081359050613784816150c4565b92915050565b600081359050613799816150db565b92915050565b6000815190506137ae816150db565b92915050565b600082601f8301126137c557600080fd5b81356137d58482602086016136a5565b91505092915050565b600082601f8301126137ef57600080fd5b81356137ff8482602086016136e3565b91505092915050565b600081359050613817816150f2565b92915050565b60006020828403121561382f57600080fd5b600061383d84828501613721565b91505092915050565b6000806040838503121561385957600080fd5b600061386785828601613736565b925050602061387885828601613808565b9150509250929050565b6000806040838503121561389557600080fd5b60006138a385828601613721565b92505060206138b485828601613721565b9150509250929050565b6000806000606084860312156138d357600080fd5b60006138e186828701613721565b93505060206138f286828701613721565b925050604061390386828701613808565b9150509250925092565b6000806000806080858703121561392357600080fd5b600061393187828801613721565b945050602061394287828801613721565b935050604061395387828801613808565b925050606085013567ffffffffffffffff81111561397057600080fd5b61397c878288016137b4565b91505092959194509250565b6000806040838503121561399b57600080fd5b60006139a985828601613721565b92505060206139ba85828601613775565b9150509250929050565b600080604083850312156139d757600080fd5b60006139e585828601613721565b92505060206139f685828601613808565b9150509250929050565b600060208284031215613a1257600080fd5b6000613a208482850161378a565b91505092915050565b600060208284031215613a3b57600080fd5b6000613a498482850161379f565b91505092915050565b600060208284031215613a6457600080fd5b600082013567ffffffffffffffff811115613a7e57600080fd5b613a8a848285016137de565b91505092915050565b600060208284031215613aa557600080fd5b6000613ab384828501613808565b91505092915050565b60008060408385031215613acf57600080fd5b6000613add85828601613808565b925050602083013567ffffffffffffffff811115613afa57600080fd5b613b068582860161374b565b9150509250929050565b60008060408385031215613b2357600080fd5b6000613b3185828601613808565b925050602083013567ffffffffffffffff811115613b4e57600080fd5b613b5a858286016137de565b9150509250929050565b6000613b70838361406f565b60208301905092915050565b613b85816146fc565b82525050565b6000613b96826145ca565b613ba081856145f8565b9350613bab836145ba565b8060005b83811015613bdc578151613bc38882613b64565b9750613bce836145eb565b925050600181019050613baf565b5085935050505092915050565b613bf281614720565b82525050565b6000613c03826145d5565b613c0d8185614609565b9350613c1d818560208601614791565b613c268161495d565b840191505092915050565b6000613c3c826145e0565b613c468185614625565b9350613c56818560208601614791565b613c5f8161495d565b840191505092915050565b6000613c75826145e0565b613c7f8185614636565b9350613c8f818560208601614791565b80840191505092915050565b6000613ca8601183614625565b9150613cb38261496e565b602082019050919050565b6000613ccb602b83614625565b9150613cd682614997565b604082019050919050565b6000613cee603283614625565b9150613cf9826149e6565b604082019050919050565b6000613d11602683614625565b9150613d1c82614a35565b604082019050919050565b6000613d34602583614625565b9150613d3f82614a84565b604082019050919050565b6000613d57601c83614625565b9150613d6282614ad3565b602082019050919050565b6000613d7a602483614625565b9150613d8582614afc565b604082019050919050565b6000613d9d601983614625565b9150613da882614b4b565b602082019050919050565b6000613dc0603a83614625565b9150613dcb82614b74565b604082019050919050565b6000613de3601d83614625565b9150613dee82614bc3565b602082019050919050565b6000613e06601583614625565b9150613e1182614bec565b602082019050919050565b6000613e29602c83614625565b9150613e3482614c15565b604082019050919050565b6000613e4c603883614625565b9150613e5782614c64565b604082019050919050565b6000613e6f602a83614625565b9150613e7a82614cb3565b604082019050919050565b6000613e92602983614625565b9150613e9d82614d02565b604082019050919050565b6000613eb5602e83614625565b9150613ec082614d51565b604082019050919050565b6000613ed8602083614625565b9150613ee382614da0565b602082019050919050565b6000613efb601983614625565b9150613f0682614dc9565b602082019050919050565b6000613f1e603183614625565b9150613f2982614df2565b604082019050919050565b6000613f41602c83614625565b9150613f4c82614e41565b604082019050919050565b6000613f64602083614625565b9150613f6f82614e90565b602082019050919050565b6000613f87602f83614625565b9150613f9282614eb9565b604082019050919050565b6000613faa602183614625565b9150613fb582614f08565b604082019050919050565b6000613fcd60008361461a565b9150613fd882614f57565b600082019050919050565b6000613ff0601083614625565b9150613ffb82614f5a565b602082019050919050565b6000614013603183614625565b915061401e82614f83565b604082019050919050565b6000614036602c83614625565b915061404182614fd2565b604082019050919050565b6000614059604983614625565b915061406482615021565b606082019050919050565b61407881614778565b82525050565b61408781614778565b82525050565b60006140998285613c6a565b91506140a58284613c6a565b91508190509392505050565b60006140bc82613fc0565b9150819050919050565b60006020820190506140db6000830184613b7c565b92915050565b60006080820190506140f66000830187613b7c565b6141036020830186613b7c565b614110604083018561407e565b81810360608301526141228184613bf8565b905095945050505050565b600060208201905081810360008301526141478184613b8b565b905092915050565b60006020820190506141646000830184613be9565b92915050565b600060208201905081810360008301526141848184613c31565b905092915050565b600060208201905081810360008301526141a581613c9b565b9050919050565b600060208201905081810360008301526141c581613cbe565b9050919050565b600060208201905081810360008301526141e581613ce1565b9050919050565b6000602082019050818103600083015261420581613d04565b9050919050565b6000602082019050818103600083015261422581613d27565b9050919050565b6000602082019050818103600083015261424581613d4a565b9050919050565b6000602082019050818103600083015261426581613d6d565b9050919050565b6000602082019050818103600083015261428581613d90565b9050919050565b600060208201905081810360008301526142a581613db3565b9050919050565b600060208201905081810360008301526142c581613dd6565b9050919050565b600060208201905081810360008301526142e581613df9565b9050919050565b6000602082019050818103600083015261430581613e1c565b9050919050565b6000602082019050818103600083015261432581613e3f565b9050919050565b6000602082019050818103600083015261434581613e62565b9050919050565b6000602082019050818103600083015261436581613e85565b9050919050565b6000602082019050818103600083015261438581613ea8565b9050919050565b600060208201905081810360008301526143a581613ecb565b9050919050565b600060208201905081810360008301526143c581613eee565b9050919050565b600060208201905081810360008301526143e581613f11565b9050919050565b6000602082019050818103600083015261440581613f34565b9050919050565b6000602082019050818103600083015261442581613f57565b9050919050565b6000602082019050818103600083015261444581613f7a565b9050919050565b6000602082019050818103600083015261446581613f9d565b9050919050565b6000602082019050818103600083015261448581613fe3565b9050919050565b600060208201905081810360008301526144a581614006565b9050919050565b600060208201905081810360008301526144c581614029565b9050919050565b600060208201905081810360008301526144e58161404c565b9050919050565b6000602082019050614501600083018461407e565b92915050565b6000614511614522565b905061451d82826147f6565b919050565b6000604051905090565b600067ffffffffffffffff8211156145475761454661492e565b5b602082029050602081019050919050565b600067ffffffffffffffff8211156145735761457261492e565b5b61457c8261495d565b9050602081019050919050565b600067ffffffffffffffff8211156145a4576145a361492e565b5b6145ad8261495d565b9050602081019050919050565b6000819050602082019050919050565b600081519050919050565b600081519050919050565b600081519050919050565b6000602082019050919050565b600082825260208201905092915050565b600082825260208201905092915050565b600081905092915050565b600082825260208201905092915050565b600081905092915050565b600061464c82614778565b915061465783614778565b9250827fffffffffffffffffffffffffffffffffffffffffffffffffffffffffffffffff0382111561468c5761468b6148a1565b5b828201905092915050565b60006146a282614778565b91506146ad83614778565b9250826146bd576146bc6148d0565b5b828204905092915050565b60006146d382614778565b91506146de83614778565b9250828210156146f1576146f06148a1565b5b828203905092915050565b600061470782614758565b9050919050565b600061471982614758565b9050919050565b60008115159050919050565b60007fffffffff0000000000000000000000000000000000000000000000000000000082169050919050565b600073ffffffffffffffffffffffffffffffffffffffff82169050919050565b6000819050919050565b82818337600083830152505050565b60005b838110156147af578082015181840152602081019050614794565b838111156147be576000848401525b50505050565b600060028204905060018216806147dc57607f821691505b602082108114156147f0576147ef6148ff565b5b50919050565b6147ff8261495d565b810181811067ffffffffffffffff8211171561481e5761481d61492e565b5b80604052505050565b600061483282614778565b91507fffffffffffffffffffffffffffffffffffffffffffffffffffffffffffffffff821415614865576148646148a1565b5b600182019050919050565b600061487b82614778565b915061488683614778565b925082614896576148956148d0565b5b828206905092915050565b7f4e487b7100000000000000000000000000000000000000000000000000000000600052601160045260246000fd5b7f4e487b7100000000000000000000000000000000000000000000000000000000600052601260045260246000fd5b7f4e487b7100000000000000000000000000000000000000000000000000000000600052602260045260246000fd5b7f4e487b7100000000000000000000000000000000000000000000000000000000600052604160045260246000fd5b6000601f19601f8301169050919050565b7f4e6f7420656e6f75676820657468657221000000000000000000000000000000600082015250565b7f455243373231456e756d657261626c653a206f776e657220696e646578206f7560008201527f74206f6620626f756e6473000000000000000000000000000000000000000000602082015250565b7f4552433732313a207472616e7366657220746f206e6f6e20455243373231526560008201527f63656976657220696d706c656d656e7465720000000000000000000000000000602082015250565b7f4f776e61626c653a206e6577206f776e657220697320746865207a65726f206160008201527f6464726573730000000000000000000000000000000000000000000000000000602082015250565b7f4552433732313a207472616e736665722066726f6d20696e636f72726563742060008201527f6f776e6572000000000000000000000000000000000000000000000000000000602082015250565b7f4552433732313a20746f6b656e20616c7265616479206d696e74656400000000600082015250565b7f4552433732313a207472616e7366657220746f20746865207a65726f2061646460008201527f7265737300000000000000000000000000000000000000000000000000000000602082015250565b7f4552433732313a20617070726f766520746f2063616c6c657200000000000000600082015250565b7f416464726573733a20756e61626c6520746f2073656e642076616c75652c207260008201527f6563697069656e74206d61792068617665207265766572746564000000000000602082015250565b7f416464726573733a20696e73756666696369656e742062616c616e6365000000600082015250565b7f4e6f7420656e6f756768204e465473206c656674210000000000000000000000600082015250565b7f4552433732313a206f70657261746f7220717565727920666f72206e6f6e657860008201527f697374656e7420746f6b656e0000000000000000000000000000000000000000602082015250565b7f4552433732313a20617070726f76652063616c6c6572206973206e6f74206f7760008201527f6e6572206e6f7220617070726f76656420666f7220616c6c0000000000000000602082015250565b7f4552433732313a2062616c616e636520717565727920666f7220746865207a6560008201527f726f206164647265737300000000000000000000000000000000000000000000602082015250565b7f4552433732313a206f776e657220717565727920666f72206e6f6e657869737460008201527f656e7420746f6b656e0000000000000000000000000000000000000000000000602082015250565b7f45524337323155524953746f726167653a2055524920736574206f66206e6f6e60008201527f6578697374656e7420746f6b656e000000000000000000000000000000000000602082015250565b7f4552433732313a206d696e7420746f20746865207a65726f2061646472657373600082015250565b7f4e6f206574686572206c65667420746f20776974686472617700000000000000600082015250565b7f45524337323155524953746f726167653a2055524920717565727920666f722060008201527f6e6f6e6578697374656e7420746f6b656e000000000000000000000000000000602082015250565b7f4552433732313a20617070726f76656420717565727920666f72206e6f6e657860008201527f697374656e7420746f6b656e0000000000000000000000000000000000000000602082015250565b7f4f776e61626c653a2063616c6c6572206973206e6f7420746865206f776e6572600082015250565b7f4552433732314d657461646174613a2055524920717565727920666f72206e6f60008201527f6e6578697374656e7420746f6b656e0000000000000000000000000000000000602082015250565b7f4552433732313a20617070726f76616c20746f2063757272656e74206f776e6560008201527f7200000000000000000000000000000000000000000000000000000000000000602082015250565b50565b7f5472616e73666572206661696c65642e00000000000000000000000000000000600082015250565b7f4552433732313a207472616e736665722063616c6c6572206973206e6f74206f60008201527f776e6572206e6f7220617070726f766564000000000000000000000000000000602082015250565b7f455243373231456e756d657261626c653a20676c6f62616c20696e646578206f60008201527f7574206f6620626f756e64730000000000000000000000000000000000000000602082015250565b7f43616e6e6f74206d696e7420737065636966696564206e756d626572206f662060008201527f4e4654732e20596f752063616e206d696e74206174206d6f7374203130204e4660208201527f54206174206f6e63650000000000000000000000000000000000000000000000604082015250565b61509f816146fc565b81146150aa57600080fd5b50565b6150b68161470e565b81146150c157600080fd5b50565b6150cd81614720565b81146150d857600080fd5b50565b6150e48161472c565b81146150ef57600080fd5b50565b6150fb81614778565b811461510657600080fd5b5056fea264697066735822122031a327b2fdbcafd444f50263cbdebd8d0db019c8e8581bdb0bced40ba766cab464736f6c63430008040033",
  "linkReferences": {},
  "deployedLinkReferences": {}
}